:100000000C947B000C949A000C94B1000C94980012
:100010000C9498000C9498000C9498000C94980000
:100020000C9498000C9498000C9498000C949800F0
:100030000C9498000C9498000C9498000C949800E0
:100040000C94C8000C9498000C9426070C94540748
:100050000C9498000C9498000C9498000C949800C0
:100060000C9498000C94980041542B434D47444104
:100070003D2244454C20414C4C220D0041542B4321
:1000800053434C4B3D310D0041542B434D49433DAF
:10009000302C31350D0041542B435245473D300D36
:1000A0000041542B434C49503D310D0041542B43EA
:1000B000504D533D22534D222C22534D222C22537E
:1000C0004D220D0041542B434D47463D310D00411B
:1000D0005445300D0041540D0041540D0041542B46
:1000E000435245473F0D0041542B435245473F0D76
:1000F0000041540D000011241FBECFEFD8E0DEBF39
:10010000CDBF16E0A0E0B1E0E6E9FCE102C0059059
:100110000D92A43BB107D9F727E0A4EBB6E001C0EC
:100120001D92A130B207E1F70E94F2010C94490E32
:100130000C9400001F920F920FB60F9211248F9310
:100140009F938FE39CE90197F1F700C0000081E0E5
:100150008093B7069F918F910F900FBE0F901F90C5
:1001600018951F920F920FB60F9211248F939F93A1
:100170008FE39CE90197F1F700C0000081E08093D4
:10018000B4069F918F910F900FBE0F901F901895FE
:100190001F920F920FB60F9211242F938F939F935C
:1001A0008091B5069091B6068C3B9F4720F0109247
:1001B000B6061092B5068091B5069091B6060196E6
:1001C0009093B6068093B5069F918F912F910F90D3
:1001D0000FBE0F901F9018950F931F93CF93DF932F
:1001E000EC011092B6061092B50616BC86E091E0BE
:1001F0000E9482038091B5069091B6068C179D07E8
:1002000008F04BC010E001E09091B706913069F41E
:100210000E94B7031092B7061092B6061092B50668
:1002200088E291E00E948203102F9091B4069130F1
:1002300039F50E94CA038FE19EE40197F1F700C0EF
:1002400000004B9B1DC01092B4069FEF24E38CE08E
:10025000915020408040E1F700C000004B9B10C04F
:1002600086E491E00E9482030E94170787E591E0EF
:100270000E9482038FE691E00E94C5070E94080752
:100280000E94C8030E94B9032091B5063091B606BA
:100290002C173D0708F4B8CF01C010E0812FDF9183
:1002A000CF911F910F910895CF92DF92EF92FF921D
:1002B0001F93CF93DF93CDB7DEB760970FB6F89457
:1002C000DEBF0FBECDBF6C017B011092B60610924F
:1002D000B50616BC84E791E00E94820310E032C0AC
:1002E0009091B706913019F50E94B7031092B706A6
:1002F0001092B6061092B5061F5F88E291E00E9448
:10030000820385E991E00E9482034AE0BE016F5FAB
:100310007F4F812F90E00E942F0BCE0101960E940B
:10032000820386EA94E00E9482030E94B903212F8F
:1003300030E0C216D30630F486EA91E00E948203D0
:1003400081E008C02091B5063091B6062E153F0514
:1003500038F280E060960FB6F894DEBF0FBECDBFD6
:10036000DF91CF911F91FF90EF90DF90CF90089594
:10037000CF93C82FA8958CEC91E00E9482030E9435
:100380001707A8958AED91E00E9482030E94D1048C
:100390008823E9F088E092E00E948203A89582E237
:1003A00092E00E9482036C2F89E694E00E942C0662
:1003B000882341F081E392E00E9482030E940807B3
:1003C00081E00EC08DE392E00E94820304C080E5CC
:1003D00092E00E9482030E94B9030E94080780E015
:1003E000CF9108952FEF80E792E021508040904018
:1003F000E1F700C000002A9A229A80E096E90E9464
:10040000CC03789486E792E00E9482030E94E6067D
:100410000E9417078AE892E00E9482034B9B06C065
:100420008CEA92E00E9482030E94F2062FEF80E79E
:1004300092E0215080409040E1F700C000004B99CD
:100440003BC082ED92E00E9482030E94B8048111B9
:100450001BC0CBE0D0E082EF92E00E9482032FEF3E
:1004600084E39CE0215080409040E1F700C0000010
:100470000E94B804882329F081E093E00E9482035F
:1004800007C0219741F704C081E093E00E948203F6
:1004900080E00E94FE04882329F08AE093E00E9415
:1004A00082030AC085E293E00E9482034B9904C054
:1004B0008DE393E00E9482030E9408078FE19EE48F
:1004C0000197F1F700C0000004B603FE0FC086EAF2
:1004D00094E00E94820386E693E00E94820386EA0B
:1004E00094E00E94820384B7877F84BF8CE793E007
:1004F0000E9482030E94BB0383B7817F846083BF15
:1005000085E993E00E9482038FE19EE40197F1F771
:1005100000C0000087EA93E00E9482030E9401036A
:100520000E9491038EEA93E00E94820383EB93E0A2
:100530000E9482030E9432030E9491038BEB93E09E
:100540000E9482038FEB93E00E9482030E94B90312
:1005500066E970E085E090E00E945401882339F15B
:100560000E94B70380E00E94B8010E94C80386ED94
:1005700093E00E9482030E94B90382E893E20E9402
:10058000EC00882361F00E94CA030E94B7038BEE3F
:1005900093E00E94820381E00E94B8010CC080E0D9
:1005A00094E00E94820382E00E94B80104C089E2C4
:1005B00094E00E9482030E94CA030E94B90383E46C
:1005C00094E00E9482039FEF20E782E09150204058
:1005D0008040E1F700C0000083B7816083BF889549
:1005E00083B78E7F83BF9FEF20E782E0915020404A
:1005F0008040E1F700C000008EE594E00E94820395
:1006000083CFECE7F0E0108280818064808380817A
:1006100083608083EAE7F0E01082808187608083D6
:10062000808180688083808180648083808186FD72
:10063000FDCFEAE7F0E080818F77808360917800DA
:1006400070917900660F771F80E090E00E949F080C
:1006500022E538EB4EE250E40E942D090E9470081A
:10066000CB010895ECE7F0E0108280818064808304
:10067000808188608083EAE7F0E010828081876073
:100680008083808180688083808180648083808192
:1006900086FDFDCFEAE7F0E080818F77808360916F
:1006A00078007091790080E090E00E949F0821E935
:1006B0003DEE44E250E40E942D0923E333E341EA96
:1006C00053E40E9403080E947008CB0108952FB7DD
:1006D000F8949AE0E5B1EB7FE5B900000000000076
:1006E00000000000E1E3F0E03197F1F7E5B180FDB3
:1006F000E46080FFEB7FE5B9089487959A9591F7C0
:100700002FBF0895CF93DF93EC018881882331F0C8
:1007100021960E94670389918111FBCFDF91CF91D0
:100720000895CF93DF93CDB7DEB760970FB6F894F7
:10073000DEBF0FBECDBF4AE0BE016F5F7F4F0E949C
:100740002F0BCE0101960E94820360960FB6F8949B
:10075000DEBF0FBECDBFDF91CF91089585B5856017
:1007600085BDEEE6F0E08081816080830895E898A1
:100770000895E89A08955A9A5B9AE9E6F0E0808134
:10078000886080838081846080830E94AE030895A6
:10079000E99A0895E99808950F931F938C0120E03A
:1007A00030E0D901C801805C9D4BA04FBF4F880F3E
:1007B000991FAA1FBB1F880F991FAA1FBB1FBC012F
:1007C000CD01660F771F881F991F000F111F221F71
:1007D000331F000F111F221F331FA9019801220F81
:1007E000331F441F551F220F331F441F551F0E94E4
:1007F0009A09C90101970E947E071F910F910895E0
:100800000E94970781159140D9F708952F923F9242
:100810004F925F926F927F928F929F92AF92BF9210
:10082000CF92DF92EF92FF920F931F93CF93DF93BC
:1008300000D000D01F92CDB7DEB7F82E5B015D83EC
:100840004C8328013901E982DB82CA8261E070E0D1
:1008500080E490E00E94BC098C01892B09F46FC0F0
:1008600080E4F80111928A95E9F7A114B10409F422
:1008700041C00E940004FF2021F0C5010E94D4075E
:1008800039C0C5010E94C50735C0FFEFCF1ADF0A86
:10089000EF0AFF0A22E02A95F1F700C00E949707AD
:1008A0008115E1E09E0739F4C414D504E604F70489
:1008B00061F7F12C2FC0C414D504E604F70420F529
:1008C000F50181935F0193948C819D81009731F0B4
:1008D000BC01C8010E94150B892BC1F466E774E0C6
:1008E000C8010E94150B892BA1F49FE3991207C040
:1008F000F12C10C05801912C212C312C812CC22CB0
:10090000D32CE82CF12CCACFF12C04C0FF24F39493
:1009100001C0F12CE981EE2369F08A819B81009767
:1009200049F09E1638F4FF2029F0492D50E0B80117
:100930000E94050BC8010E946D0A8F2D01C080E046
:100940000F900F900F900F900F90DF91CF911F910C
:100950000F91FF90EF90DF90CF90BF90AF909F905E
:100960008F907F906F905F904F903F902F90089561
:10097000CF92DF92EF920F931F93C12CD12CE12CD9
:1009800000E211EA27E030E04CE754E061EF70E06C
:1009900081E00E9406041F910F91EF90DF90CF90AD
:1009A0000895CF92DF92EF920F931F93C12CD12C19
:1009B000E12C00E41BE42CE430E04FE754E067EE68
:1009C00070E081E00E940604811111C000E41BE484
:1009D0002CE430E04AE854E06DED70E081E00E94E4
:1009E000060491E0811101C090E0892F01C081E0EF
:1009F0001F910F91EF90DF90CF900895CF92DF92EB
:100A0000EF920F931F93CF938823F1F0C12CD12C39
:100A1000E12C00E211EA27E030E04CE754E069ED18
:100A200070E081E00E940604882381F32FEF80E7C5
:100A300092E0215080409040E1F700C0000085E93D
:100A400094E00E9482031FC0C12CD12CE12C00E253
:100A500011EA27E030E04CE754E065ED70E081E01A
:100A60000E940604C82F2FEF80E792E021508040BB
:100A70009040E1F700C0000085E994E00E94820305
:100A8000CC2309F4E1C0C12CD12CE12C00E211EA05
:100A900027E030E04CE754E06FEC70E081E00E942A
:100AA0000604C82F882309F4CFC02FEF80E792E017
:100AB000215080409040E1F700C0000089EA94E0B6
:100AC0000E94820300E412E42FE030E04CE754E09F
:100AD00064EC70E081E00E940604C82F882309F4CA
:100AE000B3C02FEF80E792E0215080409040E1F7C3
:100AF00000C0000086EB94E00E94820300E412E450
:100B00002FE030E04CE754E06CEA70E081E00E94B6
:100B10000604C82F882309F497C08CEC94E00E9447
:100B200082032FEF80E792E0215080409040E1F770
:100B300000C0000000E412E42FE030E04CE754E095
:100B400061EA70E081E00E940604C82F882309F45E
:100B50007BC084EE94E00E9482032FEF80E792E056
:100B6000215080409040E1F700C0000000E412E412
:100B70002FE030E04CE754E066E970E081E00E944D
:100B80000604C82F882309F45FC08AEF94E00E940E
:100B900082032FEF80E792E0215080409040E1F700
:100BA00000C0000000E412E42FE030E04CE754E025
:100BB00068E870E081E00E940604C82F882309F4E9
:100BC00043C08AE195E00E9482032FEF80E792E024
:100BD000215080409040E1F700C0000000E412E4A2
:100BE0002FE030E04CE754E06CE770E081E00E94D9
:100BF0000604C82F882341F187E395E00E94820311
:100C00002FEF80E792E0215080409040E1F700C054
:100C1000000000E41BE42CE430E04CE754E068E61C
:100C200070E081E00E940604C82F882369F08EE4FA
:100C300095E00E9482032FEF80E792E021508040F0
:100C40009040E1F700C000008C2FCF911F910F91D1
:100C5000EF90DF90CF900895CF92DF92EF92FF92C6
:100C60000F931F93CF93DF93182F092FF62E61E078
:100C700070E080E290E00E94BC09EC01009709F46A
:100C80009BC020E2FC01822F11928A95E9F70F9315
:100C90001F9384E695E09F938F931F922F93DF938A
:100CA000CF930E94540BC12CD12CE12C00E814E806
:100CB0002EE130E042E755E0BE0180E00E940604EC
:100CC000182F8DB79EB708960FB6F8949EBF0FBE2B
:100CD0008DBF112309F46BC0F11028C0EFE1FEE4D1
:100CE0003197F1F700C0000083EA95E00E94C50744
:100CF0000E9401030E94E6078BEA95E00E94C50767
:100D00000E94010388349D4028F48EEA95E00E94F9
:100D1000C50704C088EB95E00E94C5078FEB95E0FE
:100D20000E94C5078AE10E94B0072EC021E0F2129E
:100D300014C083EA95E00E94C5070E9401030E9447
:100D4000E6078EEA93E00E94C50784EE95E00E94D4
:100D5000C5078AE10E94B00717C082E0F81214C0EC
:100D600083EA95E00E94C5070E9401030E94E607FE
:100D70008EEA93E00E94C5078AE096E00E94C507CC
:100D80008AE10E94B00713C087EA93E00E94C5077A
:100D90000E9401030E94E6078EEA93E00E94C507C5
:100DA0008EE696E00E94C5078AE10E94B007CE0158
:100DB0000E946D0A812F01C080E0DF91CF911F91C9
:100DC0000F91FF90EF90DF90CF9008955D985D9820
:100DD0005D98559A569A579A5B9A8AE18A95F1F7E7
:100DE00000C008955D9A2FEF8AED9AE1215080406E
:100DF0009040E1F700C000005D982FEF81E19AE795
:100E0000215080409040E1F700C0000081E008954B
:100E10005E9A2FEF80E792E0215080409040E1F70A
:100E200000C0000085E896E00E94820308955E9865
:100E30002FEF80E792E0215080409040E1F700C022
:100E400000008CE996E00E94820308951F920F92A1
:100E50000FB60F9211242F938F939F93EF93FF93CD
:100E60008091C0002091C6008871E091BA06EF5FC2
:100E7000EF719091B906E91739F0E093BA06F0E006
:100E8000E354F94F208301C082E09091B806892B8A
:100E90008093B806FF91EF919F918F912F910F90C2
:100EA0000FBE0F901F9018951F920F920FB60F92C2
:100EB00011248F939F93EF93FF939091BC068091A1
:100EC000BB06981769F0E091BB06EF5FEF71E09306
:100ED000BB06F0E0E352F94F80818093C60005C065
:100EE000E1ECF0E080818F7D8083FF91EF919F9115
:100EF0008F910F900FBE0F901F9018951092BC0607
:100F00001092BB061092BA061092B906992324F4E7
:100F100022E02093C0009F779093C5008093C40087
:100F200088E98093C10086E08093C2000895909183
:100F3000BA068091B906981781F0E091B906EF5F83
:100F4000EF71E093B906F0E0E354F94F808190919E
:100F5000B8061092B80690E0089580E091E00895F8
:100F60002091BC062F5F2F719091BB062917E1F3EA
:100F7000E22FF0E0E352F94F80832093BC06E1ECCE
:100F8000F0E08081806280830895CF93DF93EC014D
:100F90008881882331F021960E94B00789918111C0
:100FA000FBCFDF91CF910895CF93DF93EC01219692
:100FB000FC018491882339F00E94B007FE018491DE
:100FC00021968111F9CFDF91CF910895CF93DF93CF
:100FD000CDB7DEB760970FB6F894DEBF0FBECDBFBA
:100FE0004AE0BE016F5F7F4F0E942F0BCE0101963A
:100FF0000E94C50760960FB6F894DEBF0FBECDBF46
:10100000DF91CF9108955058BB27AA270E941B0853
:101010000C94F3080E94E50838F00E94EC0820F0D8
:1010200039F49F3F19F426F40C94E2080EF4E0958D
:10103000E7FB0C94DC08E92F0E94040958F3BA1767
:10104000620773078407950720F079F4A6F50C94DE
:1010500026090EF4E0950B2EBA2FA02D0B01B90135
:1010600090010C01CA01A0011124FF27591B99F01E
:10107000593F50F4503E68F11A16F040A22F232F2A
:10108000342F4427585FF3CF469537952795A7957A
:10109000F0405395C9F77EF41F16BA0B620B730B21
:1010A000840BBAF09150A1F0FF0FBB1F661F771F92
:1010B000881FC2F70EC0BA0F621F731F841F48F447
:1010C000879577956795B795F7959E3F08F0B0CFD0
:1010D0009395880F08F09927EE0F979587950895B7
:1010E0000E940C0988F09F5798F0B92F9927B751A3
:1010F000B0F0E1F0660F771F881F991F1AF0BA95BC
:10110000C9F714C0B13091F00E942609B1E00895EA
:101110000C942609672F782F8827B85F39F0B93FDC
:10112000CCF3869577956795B395D9F73EF490956E
:101130008095709561957F4F8F4F9F4F0895E894EC
:1011400009C097FB3EF490958095709561957F4F0F
:101150008F4F9F4F9923A9F0F92F96E9BB279395BD
:10116000F695879577956795B795F111F8CFFAF4CD
:10117000BB0F11F460FF1BC06F5F7F4F8F4F9F4FFE
:1011800016C0882311F096E911C0772321F09EE85C
:10119000872F762F05C0662371F096E8862F70E0C2
:1011A00060E02AF09A95660F771F881FDAF7880F9C
:1011B0009695879597F9089597F99F6780E870E06D
:1011C00060E008959FEF80EC089500240A941616BD
:1011D000170618060906089500240A941216130625
:1011E000140605060895092E0394000C11F48823B3
:1011F00052F0BB0F40F4BF2B11F460FF04C06F5FCF
:101200007F4F8F4F9F4F089557FD9058440F551FA4
:1012100059F05F3F71F04795880F97FB991F61F078
:101220009F3F79F087950895121613061406551FEF
:10123000F2CF4695F1DF08C0161617061806991F5B
:10124000F1CF86957105610508940895E894BB2750
:1012500066277727CB0197F908950E9440090C94DF
:10126000F3080E94E50838F00E94EC0820F095236E
:1012700011F00C94DC080C94E20811240C9427095A
:101280000E94040970F3959FC1F3950F50E0551F1C
:10129000629FF001729FBB27F00DB11D639FAA27CB
:1012A000F00DB11DAA1F649F6627B00DA11D661F1A
:1012B000829F2227B00DA11D621F739FB00DA11D3B
:1012C000621F839FA00D611D221F749F3327A00DF5
:1012D000611D231F849F600D211D822F762F6A2F91
:1012E00011249F5750409AF0F1F088234AF0EE0FF6
:1012F000FF1FBB1F661F771F881F91505040A9F723
:101300009E3F510580F00C94DC080C9427095F3F48
:10131000E4F3983ED4F3869577956795B795F7955E
:10132000E7959F5FC1F7FE2B880F911D96958795D6
:1013300097F90895A1E21A2EAA1BBB1BFD010DC04F
:10134000AA1FBB1FEE1FFF1FA217B307E407F50775
:1013500020F0A21BB30BE40BF50B661F771F881F51
:10136000991F1A9469F760957095809590959B01E7
:10137000AC01BD01CF0108950F931F93CF93DF936D
:10138000869F8001879F100D969F100D1124C80124
:101390000E94D809EC01009729F0A80160E070E0F4
:1013A0000E940E0BCE01DF91CF911F910F910895F6
:1013B000CF93DF938230910510F482E090E0E091CA
:1013C000FF06F091000720E030E0C0E0D0E0309769
:1013D00011F14081518148175907C0F0481759074A
:1013E00061F482819381209719F09B838A832BC0BB
:1013F000909300078093FF0626C02115310519F050
:101400004217530718F49A01BE01DF01EF01028071
:10141000F381E02DDCCF2115310509F1281B390BB3
:101420002430310590F412968D919C91139761159B
:10143000710521F0FB019383828304C09093000720
:101440008093FF06FD01329644C0FD01E20FF31FB9
:1014500081939193225031092D933C933AC020916E
:10146000FD063091FE06232B41F4209102013091BC
:1014700003013093FE062093FD0620910001309178
:1014800001012115310541F42DB73EB7409104010A
:1014900050910501241B350BE091FD06F091FE06ED
:1014A000E217F307A0F42E1B3F0B2817390778F03B
:1014B000AC014E5F5F4F2417350748F04E0F5F1F9A
:1014C0005093FE064093FD068193919302C0E0E0A5
:1014D000F0E0CF01DF91CF9108950F931F93CF9349
:1014E000DF93009709F48CC0FC01329713821282BB
:1014F0000091FF06109100070115110581F420816C
:101500003181820F931F2091FD063091FE0628172E
:10151000390779F5F093FE06E093FD0671C0D80116
:1015200040E050E0AE17BF0750F412962D913C9169
:101530001397AD012115310509F1D901F3CF9D01B3
:10154000DA013383228360817181860F971F8217AE
:10155000930769F4EC0128813981260F371F2E5F2C
:101560003F4F318320838A819B8193838283452BE4
:1015700029F4F0930007E093FF0642C01396FC9312
:10158000EE931297ED01499159919E01240F351F59
:10159000E217F30771F480819181840F951F029601
:1015A00011969C938E938281938113969C938E9334
:1015B0001297E0E0F0E0D80112968D919C9113977C
:1015C000009719F0F8018C01F6CF8D919C9198014C
:1015D0002E5F3F4F820F931F2091FD063091FE0634
:1015E0002817390769F4309729F4109200071092F0
:1015F000FF0602C0138212821093FE060093FD06BE
:10160000DF91CF911F910F910895FB01DC0102C082
:1016100001900D9241505040D8F70895DC0101C06F
:101620006D9341505040E0F70895FB0151915523CF
:10163000A9F0BF01DC014D9145174111E1F759F4C3
:10164000CD010190002049F04D9140154111C9F3A1
:10165000FB014111EFCF81E090E001970895BB2796
:101660004A3031F4992322F4BDE2909581959F4F41
:101670000C943B0BBB27FB015527AA27880F991F0A
:10168000AA1FA41710F0A41B83955051B9F7A05DB1
:10169000AA3308F0A95DA193009779F7B111B1932E
:1016A0001192CB010C946C0DAEE0B0E0EAE5FBE0EA
:1016B0000C94200E0D891E898F89988D26E02C832D
:1016C0001A83098397FF02C080E090E801979E8308
:1016D0008D83AE01455E5F4F698D7A8DCE01019697
:1016E0000E94840B4D815E8157FD0AC02F81388591
:1016F000421753070CF49A01F801E20FF31F10820E
:101700002E96E4E00C943C0EACE0B0E0EAE8FBE09E
:101710000C94120E7C016B018A01FC011782168267
:10172000838181FFBDC1CE0101964C01F7019381F8
:10173000F60193FD859193FF81916F01882309F450
:10174000ABC1853239F493FD859193FF81916F018F
:10175000853229F4B70190E00E947C0DE7CF512C2F
:10176000312C20E02032A0F48B3269F030F480324A
:1017700059F0833269F420612CC08D3239F0803306
:1017800039F4216026C02260246023C0286021C073
:1017900027FD27C030ED380F3A3078F426FF06C019
:1017A000FAE05F9E300D1124532E13C08AE0389E5C
:1017B000300D1124332E20620CC08E3221F426FD10
:1017C0006BC1206406C08C3611F4206802C08836D4
:1017D00041F4F60193FD859193FF81916F01811191
:1017E000C1CF982F9F7D9554933028F40C5F1F4FE5
:1017F000FFE3F9830DC0833631F0833771F0833511
:1018000009F05BC022C0F801808189830E5F1F4F01
:1018100044244394512C540115C03801F2E06F0E5A
:10182000711CF801A080B18026FF03C0652D70E017
:1018300002C06FEF7FEFC5012C870E94610D2C0164
:1018400083012C852F77222E17C03801F2E06F0E0E
:10185000711CF801A080B18026FF03C0652D70E0E7
:1018600002C06FEF7FEFC5012C870E94560D2C013F
:101870002C852068222E830123FC1BC0832D90E041
:1018800048165906B0F4B70180E290E00E947C0D42
:101890003A94F4CFF50127FC859127FE81915F01F1
:1018A000B70190E00E947C0D31103A94F1E04F1A9C
:1018B00051084114510471F7E5C0843611F089369E
:1018C00039F5F80127FF07C060817181828193811A
:1018D0000C5F1F4F08C060817181072E000C880BC0
:1018E000990B0E5F1F4F2F76722E97FF09C09095B0
:1018F0008095709561957F4F8F4F9F4F2068722E16
:101900002AE030E0A4010E94B40DA82EA81844C01B
:10191000853729F42F7EB22E2AE030E025C0F22F41
:10192000F97FBF2E8F36C1F018F4883579F0B4C036
:10193000803719F0883721F0AFC02F2F2061B22EE9
:10194000B4FE0DC08B2D8460B82E09C024FF0AC0E0
:101950009F2F9660B92E06C028E030E005C020E138
:1019600030E002C020E132E0F801B7FE07C060813C
:101970007181828193810C5F1F4F06C060817181EC
:1019800080E090E00E5F1F4FA4010E94B40DA82ECE
:10199000A818FB2DFF777F2E76FE0BC0372D3E7FDC
:1019A000A51450F474FE0AC072FC08C0372D3E7EA8
:1019B00005C0BA2C372D03C0BA2C01C0B52C34FF9A
:1019C0000DC0FE01EA0DF11D8081803311F4397ED6
:1019D00009C032FF06C0B394B39404C0832F867845
:1019E00009F0B39433FD13C030FF06C05A2CB31472
:1019F00018F4530C5B18B32CB31468F4B70180E2ED
:101A000090E03C870E947C0DB3943C85F5CFB314E5
:101A100010F43B1801C0312C34FF12C0B70180E331
:101A200090E03C870E947C0D3C8532FF17C031FD61
:101A300003C088E790E002C088E590E0B7010CC0E1
:101A4000832F867859F031FF02C08BE201C080E21B
:101A500037FD8DE2B70190E00E947C0DA51438F4AB
:101A6000B70180E390E00E947C0D5A94F7CFAA94CE
:101A7000F401EA0DF11D8081B70190E00E947C0D18
:101A8000A110F5CF332009F451CEB70180E290E0E8
:101A90000E947C0D3A94F6CFF7018681978102C0AF
:101AA0008FEF9FEF2C96E2E10C942E0EFC01059037
:101AB000615070400110D8F7809590958E0F9F1F50
:101AC0000895FC016150704001900110D8F7809595
:101AD00090958E0F9F1F0895DC01FC01672F719177
:101AE0007723E1F7329704C07C916D937083629104
:101AF000AE17BF07C8F308950F931F93CF93DF93DB
:101B0000FB01238121FD03C08FEF9FEF28C022FF3F
:101B100016C046815781248135814217530744F40A
:101B2000A081B1819D012F5F3F4F318320838C9332
:101B3000268137812F5F3F4F3783268310C0EB010B
:101B4000092F182F0084F185E02D0995892BE1F6E6
:101B50008E819F8101969F838E83812F902FDF91AD
:101B6000CF911F910F910895FA01AA27283051F1C2
:101B7000203181F1E8946F936E7F6E5F7F4F8F4FBE
:101B80009F4FAF4FB1E03ED0B4E03CD0670F781F1D
:101B9000891F9A1FA11D680F791F8A1F911DA11D02
:101BA0006A0F711D811D911DA11D20D009F468943B
:101BB0003F912AE0269F11243019305D3193DEF6E3
:101BC000CF010895462F4770405D4193B3E00FD099
:101BD000C9F7F6CF462F4F70405D4A3318F0495D84
:101BE00031FD4052419302D0A9F7EACFB4E0A69567
:101BF0009795879577956795BA95C9F70097610589
:101C0000710508959B01AC010A2E069457954795DE
:101C100037952795BA95C9F7620F731F841F951FD3
:101C2000A01D08952F923F924F925F926F927F92E4
:101C30008F929F92AF92BF92CF92DF92EF92FF92DC
:101C40000F931F93CF93DF93CDB7DEB7CA1BDB0B88
:101C50000FB6F894DEBF0FBECDBF09942A8839882D
:101C600048885F846E847D848C849B84AA84B98434
:101C7000C884DF80EE80FD800C811B81AA81B98140
:101C8000CE0FD11D0FB6F894DEBF0FBECDBFED0154
:061C90000895F894FFCF57
:101C960000000107200057616974696E6720666F4E
:101CA60072206D6F76656D656E7420746F2066693F
:101CB6006E6973682E0D0A004576656E742064653C
:101CC6007465637465642C20706F7374706F6E69CD
:101CD6006E672E0D0A0052494E472064657465638F
:101CE6007465642E0D0A00416E73776572696E67BE
:101CF6002070686F6E652063616C6C2E0D0A004162
:101D060054410D00436865636B696E6720697320F3
:101D16006D6F76656D656E74206973206C65676995
:101D2600742E0D0A004D6F76656D656E7420636FB7
:101D3600756E743A20004D6F76656D656E74206918
:101D460073206C656769742C206368616E67696EC1
:101D560067207374617475732E0D0A0047534D2006
:101D66007461736B2E2E2E0D0A00436865636B69D2
:101D76006E67206966206D6F64656D2069732072D9
:101D860065676973746572656420746F206E657427
:101D9600776F726B2E0D0A005265676973746572F0
:101DA60020746F206E6574776F726B206F6B2E0DCB
:101DB6000A0053656E64696E6720534D532E0D0AF3
:101DC60000534D532073656E742E0D0A00534D5308
:101DD6002073656E64206661696C65642E0D0A0069
:101DE6004D6F64656D206973206E6F742072656730
:101DF6006973746572656420746F206E6574776F9D
:101E0600726B2E0D0A005541525420496E69746951
:101E1600616C697A65642E0D0A004D6F64656D20EC
:101E2600636F6E74726F6C2070696E7320496E6991
:101E36007469616C697A65642E0D0A004869676881
:101E4600206F6E2052696E672070696E2C20747543
:101E5600726E696E67206F6E206D6F64656D2E0DF4
:101E66000A004C6F77206F6E2052696E672070698A
:101E76006E2C20436865636B696E672041542E0D96
:101E86000A005265747279696E672041542E0D0AF4
:101E9600004154206F6B2E0D0A0053657475702037
:101EA6004F4B2C206D6F64656D20776F726B696E7A
:101EB600672E0D0A004D6F64656D206E6F7420727B
:101EC6006573706F6E64696E672E0D0A0052494E17
:101ED60047206973204C4F572C20627574206D6F14
:101EE60064656D206E6F7420726573706F6E6469C1
:101EF6006E672E0D0A005265636F766572792061F2
:101F060066746572205744542E0D0A005374616E30
:101F16006461727420696E69742073746172746589
:101F2600642E0D0A00536C656570206D6F64652024
:101F36007365742E0D0A00566261743A20006D5660
:101F46000D0A0054656D702E3A2000430D0A004DAF
:101F56006F6E69746F72696E67206D6F76656D65F9
:101F66006E742E0D0A0052696E672064657465638F
:101F760074696F6E206F6E2E0D0A004D6F76656D5B
:101F8600656E742066696E69736865642E0D0A0055
:101F96004E6F206D6F76656D656E74206465746531
:101FA6006374656420696E20776169742066756E56
:101FB6006374696F6E2E0D0A004D6F76656D656EE2
:101FC6007420776173206E6F74206C656769742E58
:101FD6000D0A00494E5430206F6E2C20476F696EF3
:101FE6006720746F20736C6565702E0D0A00576F3D
:101FF6006B652075702E0D0A002B33373036313263
:102006003137373838004552524F52004F4B002B6C
:10201600435245473A20302C31002B435245473A2C
:1020260020302C3500436865636B696E6720636FEB
:102036006E6669673A200D0A005B41544530206F91
:102046006B2E5D0D0A005B54657874206D6F6465B8
:1020560020736574206F6B2E5D0D0A005B534D5324
:102066002053746F7261676520736574204F4B2E21
:102076005D0D0A005B43616C6C65722049442073F8
:102086006574204F4B2E5D0D0A005B5265676973C0
:1020960074726174696F6E207374617475732073E2
:1020A6006574204F4B2E5D0D0A005B4D6963726FA0
:1020B60070686F6E65206C6576656C20736574203C
:1020C6004F4B2E5D0D0A005B536C656570206D6F7E
:1020D600646520736574206F6B2E5D0D0A005B4D81
:1020E600657373616765732064656C657465642EDA
:1020F6005D0D0A0041542B434D47533D2225732263
:102106000D003E004A75646573696F206E656265F1
:102116007261206A617520356D696E2E2E205279A6
:102126007379732061746A756E6769616D61732E68
:102136000D0A00566261742E3A20006D56002D532A
:10214600454E4B412E0D0A002D4F4B2E0D0A0053C6
:10215600697374656D612073756A7564696E7461FF
:102166002C20727973797320696A756E677461734E
:102176002E0D0A004A75646573797320626169677A
:102186006573692E2052797379732061746A756E4E
:102196006769616D61732E0D0A005065722070616A
:1021A6006772696E64696E69206C61696B6F7461D0
:1021B6007270692073697374656D61206E657375DD
:1021C6006A7564656A6F2C2072656B6F6D656E64E7
:1021D600756F6A616D612070616B656973746920E2
:1021E6007069726D696E696F2066696C74726F20B2
:1021F6006E7573746174796D75732E0D0A00507265
:102206006F6772616D206572726F722E0041544461
:1022160025733B0D004D6F64656D20536C656570CD
:1022260020656E61626C65642E0D0A004D6F6465F3
:102236006D20536C6565702064697361626C6564BA
:042246002E0D0A004F
:00000001FF
