:100000000C947B000C949A000C94B1000C94980012
:100010000C9498000C9498000C9498000C94980000
:100020000C9498000C9498000C9498000C949800F0
:100030000C9498000C9498000C9498000C949800E0
:100040000C94C8000C9498000C9434070C9462072C
:100050000C9498000C9498000C9498000C949800C0
:100060000C9498000C94980041542B434D47444104
:100070003D2244454C20414C4C220D0041542B4321
:1000800053434C4B3D310D0041542B434D49433DAF
:10009000302C31350D0041542B435245473D300D36
:1000A0000041542B434C49503D310D0041542B43EA
:1000B000504D533D22534D222C22534D222C22537E
:1000C0004D220D0041542B434D47463D310D00411B
:1000D0005445300D0041540D0041540D0041542B46
:1000E000435245473F0D0041542B435245473F0D76
:1000F0000041540D000011241FBECFEFD8E0DEBF39
:10010000CDBF16E0A0E0B1E0E2EBFCE102C005905B
:100110000D92AE3CB107D9F727E0AEECB6E001C0D6
:100120001D92AB31B207E1F70E940B020C94570EFF
:100130000C9400001F920F920FB60F9211248F9310
:100140009F938FE39CE90197F1F700C0000081E0E5
:100150008093D1069F918F910F900FBE0F901F90AB
:1001600018951F920F920FB60F9211248F939F93A1
:100170008FE39CE90197F1F700C0000081E08093D4
:10018000CE069F918F910F900FBE0F901F901895E4
:100190001F920F920FB60F9211242F938F939F935C
:1001A0008091CF069091D0068C3B9F4720F0109213
:1001B000D0061092CF068091CF069091D00601967E
:1001C0009093D0068093CF069F918F912F910F909F
:1001D0000FBE0F901F9018950F931F93CF93DF932F
:1001E000EC011092D0061092CF0616BC86E091E08A
:1001F0000E94A4038091CF069091D0068C179D0792
:1002000008F04BC010E001E09091D106913069F404
:100210000E94D9031092D1061092D0061092CF06F8
:1002200088E291E00E94A403102F9091CE069130B5
:1002300039F50E94EC038FE19EE40197F1F700C0CD
:1002400000004B9B1DC01092CE069FEF24E38CE074
:10025000915020408040E1F700C000004B9B10C04F
:1002600086E491E00E94A4030E94250787E591E0BF
:100270000E94A4038FE691E00E94D3070E94160714
:100280000E94EA030E94DB032091CF063091D00642
:100290002C173D0708F4B8CF01C010E0812FDF9183
:1002A000CF911F910F910895CF92DF92EF92FF921D
:1002B0001F93CF93DF93CDB7DEB760970FB6F89457
:1002C000DEBF0FBECDBF6C017B011092D006109235
:1002D000CF0616BC84E791E00E94A40310E032C070
:1002E0009091D106913019F50E94D9031092D10650
:1002F0001092D0061092CF061F5F88E291E00E9414
:10030000A40385E991E00E94A4034AE0BE016F5F67
:100310007F4F812F90E00E943D0BCE0101960E94FD
:10032000A4038FEC94E00E94A4030E94DB03212F1E
:1003300030E0C216D30630F486EA91E00E94A403AE
:1003400081E008C02091CF063091D0062E153F05E0
:1003500038F280E060960FB6F894DEBF0FBECDBFD6
:10036000DF91CF911F91FF90EF90DF90CF90089594
:10037000CF93C82FA8958CEC91E00E94A4030E9413
:100380002507A8958AED91E00E94A4030E94F3043A
:100390008823B1F188E092E00E94A403A89582E24C
:1003A00092E00E94A4036C2F85E894E00E944E0620
:1003B000882309F187E392E00E94A4032FEF81E1F3
:1003C0009AE7215080409040E1F700C000006C2F78
:1003D00082E994E00E944E06882329F081E392E0AE
:1003E0000E94A40304C083E492E00E94A4030E943C
:1003F000160781E00EC089E592E00E94A40304C0C4
:100400008CE692E00E94A4030E94DB030E94160780
:1004100080E0CF9108952FEF80E792E02150804057
:100420009040E1F700C000002A9A229A80E096E905
:100430000E94EE03789482E992E00E94A4030E9455
:10044000F4060E94250786EA92E00E94A4034B9BD3
:1004500006C088EC92E00E94A4030E9400072FEFE0
:1004600080E792E0215080409040E1F700C000001A
:100470004B993BC08EEE92E00E94A4030E94DA04E6
:1004800081111BC0CBE0D0E08EE093E00E94A4037A
:100490002FEF84E39CE0215080409040E1F700C0C2
:1004A00000000E94DA04882329F08DE193E00E9485
:1004B000A40307C0219741F704C08DE193E00E9497
:1004C000A40380E00E942005882329F086E293E0BF
:1004D0000E94A4030AC081E493E00E94A4034B9904
:1004E00004C089E593E00E94A4030E9416078FE1EF
:1004F0009EE40197F1F700C0000004B603FE0FC0B0
:100500008FEC94E00E94A40382E893E00E94A4038D
:100510008FEC94E00E94A40384B7877F84BF88E9AE
:1005200093E00E94A4030E94DD0383B7817F84606F
:1005300083BF81EB93E00E94A4038FE19EE40197C7
:10054000F1F700C0000083EC93E00E94A4030E9436
:1005500023030E94B3038AEC93E00E94A4038FEC70
:1005600093E00E94A4030E9454030E94B30387ED0A
:1005700093E00E94A4038BED93E00E94A4030E94E9
:10058000DB0366E970E085E090E00E945401882377
:1005900081F10E94D9039FEF20E782E09150204033
:1005A0008040E1F700C0000080E00E94B8010E9496
:1005B000EA0382EF93E00E94A4030E94DB0382E837
:1005C00093E20E94EC00882361F00E94EC030E94F9
:1005D000D90387E094E00E94A40381E00E94B8015F
:1005E0000CC08CE194E00E94A40382E00E94B80158
:1005F00004C085E494E00E94A4030E94EC030E94DE
:10060000DB038FE594E00E94A4039FEF20E782E0E4
:10061000915020408040E1F700C0000083B7816026
:1006200083BF889583B78E7F83BF9FEF20E782E0EB
:10063000915020408040E1F700C000008AE794E03C
:100640000E94A4037ACFECE7F0E0108280818064FE
:100650008083808183608083EAE7F0E0108280817C
:1006600087608083808180688083808180648083CC
:10067000808186FDFDCFEAE7F0E080818F7780837F
:100680006091780070917900660F771F80E090E0AC
:100690000E94AD0822E538EB4EE250E40E943B098F
:1006A0000E947E08CB010895ECE7F0E01082808183
:1006B00080648083808188608083EAE7F0E0108234
:1006C000808187608083808180688083808180646E
:1006D0008083808186FDFDCFEAE7F0E080818F771F
:1006E0008083609178007091790080E090E00E94B2
:1006F000AD0821E93DEE44E250E40E943B0923E3CA
:1007000033E341EA53E40E9411080E947E08CB01C2
:1007100008952FB7F8949AE0E5B1EB7FE5B90000B2
:100720000000000000000000E1E3F0E03197F1F785
:10073000E5B180FDE46080FFEB7FE5B90894879523
:100740009A9591F72FBF0895CF93DF93EC0188819D
:10075000882331F021960E94890389918111FBCF72
:10076000DF91CF910895CF93DF93CDB7DEB7609738
:100770000FB6F894DEBF0FBECDBF4AE0BE016F5F7B
:100780007F4F0E943D0BCE0101960E94A40360960C
:100790000FB6F894DEBF0FBECDBFDF91CF910895A5
:1007A00085B5856085BDEEE6F0E08081816080835F
:1007B0000895E8980895E89A08955A9A5B9AE9E6A8
:1007C000F0E08081886080838081846080830E94E3
:1007D000D0030895E99A0895E99808950F931F9317
:1007E0008C0120E030E0D901C801805C9D4BA04F16
:1007F000BF4F880F991FAA1FBB1F880F991FAA1FE1
:10080000BB1FBC01CD01660F771F881F991F000F0A
:10081000111F221F331F000F111F221F331FA90199
:100820009801220F331F441F551F220F331F441FEF
:10083000551F0E94A809C90101970E948C071F91AA
:100840000F9108950E94A50781159140D9F7089549
:100850002F923F924F925F926F927F928F929F92D0
:10086000AF92BF92CF92DF92EF92FF920F931F93BE
:10087000CF93DF9300D000D01F92CDB7DEB7F82E14
:100880005B015D834C8328013901E982DB82CA82E6
:1008900061E070E080E490E00E94CA098C01892B3D
:1008A00009F46FC080E4F80111928A95E9F7A11468
:1008B000B10409F441C00E942204FF2021F0C501C7
:1008C0000E94E20739C0C5010E94D30735C0FFEF7F
:1008D000CF1ADF0AEF0AFF0A22E02A95F1F700C0DB
:1008E0000E94A5078115E1E09E0739F4C414D504E0
:1008F000E604F70461F7F12C2FC0C414D504E60414
:10090000F70420F5F50181935F0193948C819D811B
:10091000009731F0BC01C8010E94230B892BC1F460
:100920006FE974E0C8010E94230B892BA1F49FE3B7
:10093000991207C0F12C10C05801912C212C312C98
:10094000812CC22CD32CE82CF12CCACFF12C04C062
:10095000FF24F39401C0F12CE981EE2369F08A8130
:100960009B81009749F09E1638F4FF2029F0492D0D
:1009700050E0B8010E94130BC8010E947B0A8F2D22
:1009800001C080E00F900F900F900F900F90DF91BB
:10099000CF911F910F91FF90EF90DF90CF90BF907C
:1009A000AF909F908F907F906F905F904F903F900F
:1009B0002F900895CF92DF92EF920F931F93C12C47
:1009C000D12CE12C00E211EA27E030E045EA54E0C6
:1009D00061EF70E081E00E9428041F910F91EF9079
:1009E000DF90CF900895CF92DF92EF920F931F93F5
:1009F000C12CD12CE12C00E41BE42CE430E048EACB
:100A000054E067EE70E081E00E942804811111C07B
:100A100000E41BE42CE430E043EB54E06DED70E0C7
:100A200081E00E94280491E0811101C090E0892FAB
:100A300001C081E01F910F91EF90DF90CF9008955A
:100A4000CF92DF92EF920F931F93CF938823F1F011
:100A5000C12CD12CE12C00E211EA27E030E045EA7C
:100A600054E069ED70E081E00E942804882381F35E
:100A70002FEF80E792E0215080409040E1F700C0E6
:100A800000008EEB94E00E94A4031FC0C12CD12C67
:100A9000E12C00E211EA27E030E045EA54E065EDA0
:100AA00070E081E00E942804C82F2FEF80E792E0D9
:100AB000215080409040E1F700C000008EEB94E0B0
:100AC0000E94A403CC2309F4E1C0C12CD12CE12C59
:100AD00000E211EA27E030E045EA54E06FEC70E014
:100AE00081E00E942804C82F882309F4CFC02FEF8B
:100AF00080E792E0215080409040E1F700C0000084
:100B000082ED94E00E94A40300E412E42FE030E0C0
:100B100045EA54E064EC70E081E00E942804C82FAC
:100B2000882309F4B3C02FEF80E792E02150804082
:100B30009040E1F700C000008FED94E00E94A40314
:100B400000E412E42FE030E045EA54E06CEA70E0A3
:100B500081E00E942804C82F882309F497C085EFFC
:100B600094E00E94A4032FEF80E792E021508040A0
:100B70009040E1F700C0000000E412E42FE030E014
:100B800045EA54E061EA70E081E00E942804C82F41
:100B9000882309F47BC08DE095E00E94A4032FEF29
:100BA00080E792E0215080409040E1F700C00000D3
:100BB00000E412E42FE030E045EA54E066E970E03A
:100BC00081E00E942804C82F882309F45FC083E2D3
:100BD00095E00E94A4032FEF80E792E0215080402F
:100BE0009040E1F700C0000000E412E42FE030E0A4
:100BF00045EA54E068E870E081E00E942804C82FCC
:100C0000882309F443C083E495E00E94A4032FEFF6
:100C100080E792E0215080409040E1F700C0000062
:100C200000E412E42FE030E045EA54E06CE770E0C5
:100C300081E00E942804C82F882341F180E695E0D6
:100C40000E94A4032FEF80E792E021508040904063
:100C5000E1F700C0000000E41BE42CE430E045EACA
:100C600054E068E670E081E00E942804C82F8823E1
:100C700069F087E795E00E94A4032FEF80E792E0F8
:100C8000215080409040E1F700C000008C2FCF91B0
:100C90001F910F91EF90DF90CF900895CF92DF9248
:100CA000EF92FF920F931F93CF93DF93182F092F8B
:100CB000F62E61E070E080E290E00E94CA09EC014B
:100CC000009709F487C020E2FC01822F11928A95D7
:100CD000E9F70F931F938DE895E09F938F931F92F1
:100CE0002F93DF93CF930E94620BC12CD12CE12C68
:100CF00000E814E82EE130E04BE955E0BE0180E069
:100D00000E942804182F8DB79EB708960FB6F89446
:100D10009EBF0FBE8DBF112309F457C0F11028C02C
:100D2000EFE1FEE43197F1F700C000008CEC95E0B4
:100D30000E94D3070E9423030E94F40784ED95E0EC
:100D40000E94D3070E94230388349D4028F487ED36
:100D500095E00E94D30704C081EE95E00E94D3077E
:100D600088EE95E00E94D3078AE10E94BE072DC05D
:100D700021E0F21214C08CEC95E00E94D3070E948F
:100D800023030E94F4078AEC93E00E94D3078DE0CE
:100D900096E00E94D3078AE10E94BE0716C082E057
:100DA000F81213C08CEC95E00E94D3070E94230335
:100DB0000E94F4078AEC93E00E94D30783E396E055
:100DC0000E94D3078AE10E94BE07CE010E947B0ADF
:100DD000812F01C080E0DF91CF911F910F91FF9093
:100DE000EF90DF90CF9008955D985D985D98559A4B
:100DF000569A579A5B9A8AE18A95F1F700C008954E
:100E00005D9A2FEF8AED9AE1215080409040E1F702
:100E100000C000005D982FEF81E19AE721508040EB
:100E20009040E1F700C0000081E008955E9A2FEF46
:100E300080E792E0215080409040E1F700C0000040
:100E40008FE996E00E94A40308955E982FEF80E753
:100E500092E0215080409040E1F700C0000086EB16
:100E600096E00E94A40308951F920F920FB60F926E
:100E700011242F938F939F93EF93FF938091C00042
:100E80002091C6008871E091D406EF5FEF719091D8
:100E9000D306E91739F0E093D406F0E0E952F94FB0
:100EA000208301C082E09091D206892B8093D206E4
:100EB000FF91EF919F918F912F910F900FBE0F9007
:100EC0001F9018951F920F920FB60F9211248F93B7
:100ED0009F93EF93FF939091D6068091D506981734
:100EE00069F0E091D506EF5FEF71E093D506F0E091
:100EF000E950F94F80818093C60005C0E1ECF0E035
:100F000080818F7D8083FF91EF919F918F910F90D2
:100F10000FBE0F901F9018951092D6061092D5060E
:100F20001092D4061092D306992324F422E0209341
:100F3000C0009F779093C5008093C40088E9809398
:100F4000C10086E08093C20008959091D4068091FC
:100F5000D306981781F0E091D306EF5FEF71E0932D
:100F6000D306F0E0E952F94F80819091D2061092B9
:100F7000D20690E0089580E091E008952091D60691
:100F80002F5F2F719091D5062917E1F3E22FF0E042
:100F9000E950F94F80832093D606E1ECF0E08081A0
:100FA000806280830895CF93DF93EC01888188234A
:100FB00031F021960E94BE0789918111FBCFDF910C
:100FC000CF910895CF93DF93EC012196FC0184919A
:100FD000882339F00E94BE07FE0184912196811179
:100FE000F9CFDF91CF910895CF93DF93CDB7DEB7DF
:100FF00060970FB6F894DEBF0FBECDBF4AE0BE01CA
:101000006F5F7F4F0E943D0BCE0101960E94D30778
:1010100060960FB6F894DEBF0FBECDBFDF91CF91C3
:1010200008955058BB27AA270E9429080C9401094B
:101030000E94F30838F00E94FA0820F039F49F3F2C
:1010400019F426F40C94F0080EF4E095E7FB0C94E8
:10105000EA08E92F0E94120958F3BA1762077307CA
:101060008407950720F079F4A6F50C9434090EF462
:10107000E0950B2EBA2FA02D0B01B90190010C01A8
:10108000CA01A0011124FF27591B99F0593F50F4C0
:10109000503E68F11A16F040A22F232F342F442718
:1010A000585FF3CF469537952795A795F040539510
:1010B000C9F77EF41F16BA0B620B730B840BBAF0E0
:1010C0009150A1F0FF0FBB1F661F771F881FC2F74B
:1010D0000EC0BA0F621F731F841F48F4879577955F
:1010E0006795B795F7959E3F08F0B0CF9395880F19
:1010F00008F09927EE0F9795879508950E941A0991
:1011000088F09F5798F0B92F9927B751B0F0E1F0C8
:10111000660F771F881F991F1AF0BA95C9F714C078
:10112000B13091F00E943409B1E008950C94340973
:10113000672F782F8827B85F39F0B93FCCF38695B1
:1011400077956795B395D9F73EF49095809570950E
:1011500061957F4F8F4F9F4F0895E89409C097FB8B
:101160003EF490958095709561957F4F8F4F9F4F7E
:101170009923A9F0F92F96E9BB279395F6958795C2
:1011800077956795B795F111F8CFFAF4BB0F11F485
:1011900060FF1BC06F5F7F4F8F4F9F4F16C088232C
:1011A00011F096E911C0772321F09EE8872F762F62
:1011B00005C0662371F096E8862F70E060E02AF0A3
:1011C0009A95660F771F881FDAF7880F969587958F
:1011D00097F9089597F99F6780E870E060E00895B7
:1011E0009FEF80EC089500240A941616170618063F
:1011F0000906089500240A9412161306140605061B
:101200000895092E0394000C11F4882352F0BB0FAB
:1012100040F4BF2B11F460FF04C06F5F7F4F8F4F0E
:101220009F4F089557FD9058440F551F59F05F3F49
:1012300071F04795880F97FB991F61F09F3F79F0F8
:1012400087950895121613061406551FF2CF46957A
:10125000F1DF08C0161617061806991FF1CF8695FC
:101260007105610508940895E894BB2766277727E0
:10127000CB0197F908950E944E090C9401090E9430
:10128000F30838F00E94FA0820F0952311F00C942E
:10129000EA080C94F00811240C9435090E941209F4
:1012A00070F3959FC1F3950F50E0551F629FF001B9
:1012B000729FBB27F00DB11D639FAA27F00DB11DD2
:1012C000AA1F649F6627B00DA11D661F829F22275B
:1012D000B00DA11D621F739FB00DA11D621F839FE2
:1012E000A00D611D221F749F3327A00D611D231FB8
:1012F000849F600D211D822F762F6A2F11249F5706
:1013000050409AF0F1F088234AF0EE0FFF1FBB1F08
:10131000661F771F881F91505040A9F79E3F5105C7
:1013200080F00C94EA080C9435095F3FE4F3983E92
:10133000D4F3869577956795B795F795E7959F5F71
:10134000C1F7FE2B880F911D9695879597F9089503
:10135000A1E21A2EAA1BBB1BFD010DC0AA1FBB1FB9
:10136000EE1FFF1FA217B307E407F50720F0A21B2B
:10137000B30BE40BF50B661F771F881F991F1A9498
:1013800069F760957095809590959B01AC01BD01C2
:10139000CF0108950F931F93CF93DF93869F800112
:1013A000879F100D969F100D1124C8010E94E60919
:1013B000EC01009729F0A80160E070E00E941C0B8E
:1013C000CE01DF91CF911F910F910895CF93DF93BD
:1013D0008230910510F482E090E0E0911907F091DD
:1013E0001A0720E030E0C0E0D0E0309711F14081F2
:1013F000518148175907C0F04817590761F4828195
:101400009381209719F09B838A832BC090931A07AE
:101410008093190726C02115310519F0421753078B
:1014200018F49A01BE01DF01EF010280F381E02D83
:10143000DCCF2115310509F1281B390B243031058A
:1014400090F412968D919C9113976115710521F07E
:10145000FB019383828304C090931A07809319073A
:10146000FD01329644C0FD01E20FF31F8193919379
:10147000225031092D933C933AC0209117073091A7
:101480001807232B41F4209102013091030130937E
:1014900018072093170720910001309101012115B1
:1014A000310541F42DB73EB740910401509105013B
:1014B000241B350BE0911707F0911807E217F3078B
:1014C000A0F42E1B3F0B2817390778F0AC014E5FB4
:1014D0005F4F2417350748F04E0F5F1F50931807D2
:1014E000409317078193919302C0E0E0F0E0CF01B1
:1014F000DF91CF9108950F931F93CF93DF930097C0
:1015000009F48CC0FC0132971382128200911907F2
:1015100010911A070115110581F420813181820F84
:10152000931F20911707309118072817390779F56D
:10153000F0931807E093170771C0D80140E050E01E
:10154000AE17BF0750F412962D913C911397AD0141
:101550002115310509F1D901F3CF9D01DA0133835A
:10156000228360817181860F971F8217930769F428
:10157000EC0128813981260F371F2E5F3F4F3183C1
:1015800020838A819B8193838283452B29F4F09366
:101590001A07E093190742C01396FC93EE93129733
:1015A000ED01499159919E01240F351FE217F30770
:1015B00071F480819181840F951F029611969C93FE
:1015C0008E938281938113969C938E931297E0E081
:1015D000F0E0D80112968D919C911397009719F025
:1015E000F8018C01F6CF8D919C9198012E5F3F4FB1
:1015F000820F931F2091170730911807281739077A
:1016000069F4309729F410921A071092190702C052
:10161000138212821093180700931707DF91CF915E
:101620001F910F910895FB01DC0102C001900D9202
:1016300041505040D8F70895DC0101C06D934150EE
:101640005040E0F70895FB0151915523A9F0BF01E7
:10165000DC014D9145174111E1F759F4CD0101909D
:10166000002049F04D9140154111C9F3FB01411192
:10167000EFCF81E090E001970895BB274A3031F425
:10168000992322F4BDE2909581959F4F0C94490BCC
:10169000BB27FB015527AA27880F991FAA1FA4174C
:1016A00010F0A41B83955051B9F7A05DAA3308F040
:1016B000A95DA193009779F7B111B1931192CB0174
:1016C0000C947A0DAEE0B0E0E8E6FBE00C942E0E50
:1016D0000D891E898F89988D26E02C831A830983B2
:1016E00097FF02C080E090E801979E838D83AE0152
:1016F000455E5F4F698D7A8DCE0101960E94920BF7
:101700004D815E8157FD0AC02F81388542175307EE
:101710000CF49A01F801E20FF31F10822E96E4E018
:101720000C944A0EACE0B0E0E8E9FBE00C94200E2B
:101730007C016B018A01FC0117821682838181FF83
:10174000BDC1CE0101964C01F7019381F60193FDD5
:10175000859193FF81916F01882309F4ABC1853294
:1017600039F493FD859193FF81916F01853229F4BE
:10177000B70190E00E948A0DE7CF512C312C20E078
:101780002032A0F48B3269F030F4803259F0833289
:1017900069F420612CC08D3239F0803339F4216036
:1017A00026C02260246023C0286021C027FD27C0F6
:1017B00030ED380F3A3078F426FF06C0FAE05F9E2D
:1017C000300D1124532E13C08AE0389E300D1124A1
:1017D000332E20620CC08E3221F426FD6BC12064B2
:1017E00006C08C3611F4206802C0883641F4F60138
:1017F00093FD859193FF81916F018111C1CF982F46
:101800009F7D9554933028F40C5F1F4FFFE3F983BD
:101810000DC0833631F0833771F0833509F05BC03A
:1018200022C0F801808189830E5F1F4F44244394B6
:10183000512C540115C03801F2E06F0E711CF801F3
:10184000A080B18026FF03C0652D70E002C06FEF5D
:101850007FEFC5012C870E946F0D2C0183012C8521
:101860002F77222E17C03801F2E06F0E711CF8019D
:10187000A080B18026FF03C0652D70E002C06FEF2D
:101880007FEFC5012C870E94640D2C012C852068F8
:10189000222E830123FC1BC0832D90E0481659069D
:1018A000B0F4B70180E290E00E948A0D3A94F4CF40
:1018B000F50127FC859127FE81915F01B70190E03A
:1018C0000E948A0D31103A94F1E04F1A51084114E8
:1018D000510471F7E5C0843611F0893639F5F80105
:1018E00027FF07C060817181828193810C5F1F4F48
:1018F00008C060817181072E000C880B990B0E5F68
:101900001F4F2F76722E97FF09C090958095709586
:1019100061957F4F8F4F9F4F2068722E2AE030E0F5
:10192000A4010E94C20DA82EA81844C0853729F42E
:101930002F7EB22E2AE030E025C0F22FF97FBF2E95
:101940008F36C1F018F4883579F0B4C0803719F0BB
:10195000883721F0AFC02F2F2061B22EB4FE0DC00A
:101960008B2D8460B82E09C024FF0AC09F2F96607B
:10197000B92E06C028E030E005C020E130E002C00A
:1019800020E132E0F801B7FE07C0608171818281F9
:1019900093810C5F1F4F06C06081718180E090E0F1
:1019A0000E5F1F4FA4010E94C20DA82EA818FB2D88
:1019B000FF777F2E76FE0BC0372D3E7FA51450F4A7
:1019C00074FE0AC072FC08C0372D3E7E05C0BA2CDA
:1019D000372D03C0BA2C01C0B52C34FF0DC0FE0159
:1019E000EA0DF11D8081803311F4397E09C032FF88
:1019F00006C0B394B39404C0832F867809F0B394DF
:101A000033FD13C030FF06C05A2CB31418F4530C26
:101A10005B18B32CB31468F4B70180E290E03C8704
:101A20000E948A0DB3943C85F5CFB31410F43B1893
:101A300001C0312C34FF12C0B70180E390E03C8735
:101A40000E948A0D3C8532FF17C031FD03C088E734
:101A500090E002C088E590E0B7010CC0832F867843
:101A600059F031FF02C08BE201C080E237FD8DE208
:101A7000B70190E00E948A0DA51438F4B70180E305
:101A800090E00E948A0D5A94F7CFAA94F401EA0DCF
:101A9000F11D8081B70190E00E948A0DA110F5CF61
:101AA000332009F451CEB70180E290E00E948A0D04
:101AB0003A94F6CFF7018681978102C08FEF9FEFAE
:101AC0002C96E2E10C943C0EFC01059061507040B4
:101AD0000110D8F7809590958E0F9F1F0895FC01F7
:101AE0006150704001900110D8F7809590958E0F4D
:101AF0009F1F0895DC01FC01672F71917723E1F7A7
:101B0000329704C07C916D9370836291AE17BF07CA
:101B1000C8F308950F931F93CF93DF93FB012381A5
:101B200021FD03C08FEF9FEF28C022FF16C0468122
:101B30005781248135814217530744F4A081B18134
:101B40009D012F5F3F4F318320838C932681378106
:101B50002F5F3F4F3783268310C0EB01092F182FCB
:101B60000084F185E02D0995892BE1F68E819F8116
:101B700001969F838E83812F902FDF91CF911F91AC
:101B80000F910895FA01AA27283051F1203181F1EF
:101B9000E8946F936E7F6E5F7F4F8F4F9F4FAF4F75
:101BA000B1E03ED0B4E03CD0670F781F891F9A1F88
:101BB000A11D680F791F8A1F911DA11D6A0F711D3C
:101BC000811D911DA11D20D009F468943F912AE048
:101BD000269F11243019305D3193DEF6CF01089530
:101BE000462F4770405D4193B3E00FD0C9F7F6CF61
:101BF000462F4F70405D4A3318F0495D31FD405229
:101C0000419302D0A9F7EACFB4E0A69597958795BE
:101C100077956795BA95C9F700976105710508959D
:101C20009B01AC010A2E0694579547953795279549
:101C3000BA95C9F7620F731F841F951FA01D0895E1
:101C40002F923F924F925F926F927F928F929F92CC
:101C5000AF92BF92CF92DF92EF92FF920F931F93BA
:101C6000CF93DF93CDB7DEB7CA1BDB0B0FB6F8946B
:101C7000DEBF0FBECDBF09942A88398848885F84AB
:101C80006E847D848C849B84AA84B984C884DF801C
:101C9000EE80FD800C811B81AA81B981CE0FD11D00
:101CA0000FB6F894DEBF0FBECDBFED010895F894D6
:021CB000FFCF64
:101CB20000001B07200057616974696E6720666F18
:101CC20072206D6F76656D656E7420746F20666923
:101CD2006E6973682E0D0A004576656E7420646520
:101CE2007465637465642C20706F7374706F6E69B1
:101CF2006E672E0D0A0052494E4720646574656373
:101D02007465642E0D0A00416E73776572696E67A1
:101D12002070686F6E652063616C6C2E0D0A004145
:101D220054410D00436865636B696E6720697320D7
:101D32006D6F76656D656E74206973206C65676979
:101D4200742E0D0A004D6F76656D656E7420636F9B
:101D5200756E743A20004D6F76656D656E742069FC
:101D620073206C656769742C206368616E67696EA5
:101D720067207374617475732E0D0A0047534D20EA
:101D82007461736B2E2E2E0D0A00436865636B69B6
:101D92006E67206966206D6F64656D2069732072BD
:101DA20065676973746572656420746F206E65740B
:101DB200776F726B2E0D0A005265676973746572D4
:101DC20020746F206E6574776F726B206F6B2E0DAF
:101DD2000A0053656E64696E6720534D532E0D0AD7
:101DE20000446562756720534D532073656E742EEF
:101DF2000D0A00446562756720534D53206E6F745F
:101E02002073656E742E0D0A00534D532073656E58
:101E120064206661696C65642E0D0A004D6F64650D
:101E22006D206973206E6F742072656769737465C3
:101E320072656420746F206E6574776F726B2E0DFD
:101E42000A005541525420496E697469616C697A7D
:101E520065642E0D0A004D6F64656D20636F6E74AC
:101E6200726F6C2070696E7320496E697469616C5F
:101E7200697A65642E0D0A0048696768206F6E20D2
:101E820052696E672070696E2C207475726E696E6D
:101E920067206F6E206D6F64656D2E0D0A004C6FAA
:101EA20077206F6E2052696E672070696E2C204316
:101EB2006865636B696E672041542E0D0A00526596
:101EC200747279696E672041542E0D0A00415420C4
:101ED2006F6B2E0D0A005365747570204F4B2C20CA
:101EE2006D6F64656D20776F726B696E672E0D0A78
:101EF200004D6F64656D206E6F7420726573706F34
:101F02006E64696E672E0D0A0052494E472069734E
:101F1200204C4F572C20627574206D6F64656D20C4
:101F22006E6F7420726573706F6E64696E672E0DCA
:101F32000A005265636F7665727920616674657214
:101F4200205744542E0D0A005374616E64617274FA
:101F520020696E697420737461727465642E0D0A4F
:101F620000536C656570206D6F6465207365742E17
:101F72000D0A00566261743A20006D560D0A005433
:101F8200656D702E3A2000430D0A004D6F6E697424
:101F92006F72696E67206D6F76656D656E742E0D5A
:101FA2000A0052696E6720646574656374696F6EB6
:101FB200206F6E2E0D0A004D6F76656D656E742072
:101FC20066696E69736865642E0D0A004E6F206D36
:101FD2006F76656D656E742064657465637465649F
:101FE20020696E20776169742066756E6374696F0B
:101FF2006E2E0D0A004D6F76656D656E74207761E9
:1020020073206E6F74206C656769742E0D0A004927
:102012004E5430206F6E2C20476F696E6720746FAC
:1020220020736C6565702E0D0A00576F6B65207505
:10203200702E0D0A002B33373036383732373739A6
:1020420039002B33373036313231373738380045A3
:1020520052524F52004F4B002B435245473A2030C9
:102062002C31002B435245473A20302C350043682F
:1020720065636B696E6720636F6E6669673A200DF0
:102082000A005B41544530206F6B2E5D0D0A005BE8
:1020920054657874206D6F646520736574206F6B6E
:1020A2002E5D0D0A005B534D532053746F726167AE
:1020B2006520736574204F4B2E5D0D0A005B4361F2
:1020C2006C6C657220494420736574204F4B2E5D01
:1020D2000D0A005B526567697374726174696F6E91
:1020E2002073746174757320736574204F4B2E5D79
:1020F2000D0A005B4D6963726F70686F6E65206CCC
:102102006576656C20736574204F4B2E5D0D0A0059
:102112005B536C656570206D6F6465207365742018
:102122006F6B2E5D0D0A005B4D657373616765739E
:102132002064656C657465642E5D0D0A0041542B44
:10214200434D47533D222573220D003E004A7564DC
:102152006573696F206E6562657261206A617520C0
:10216200356D696E2E2E2052797379732061746AEF
:10217200756E6769616D61732E0D0A005662617436
:102182002E3A20006D56002D53454E4B412E0D0A1E
:10219200002D4F4B2E0D0A0053697374656D61203B
:1021A20073756A7564696E74612C207279737973C0
:1021B20020696A756E677461732E0D0A004A756430
:1021C2006573797320626169676573692E2052793C
:1021D2007379732061746A756E6769616D61732EBC
:1021E2000D0A005065722070616772696E64696ED3
:1021F20069206C61696B6F746172706920736973B5
:1022020074656D61206E6573756A7564656A6F2C9D
:102212002072656B6F6D656E64756F6A616D6120AA
:1022220070616B6569737469207069726D696E693A
:102232006F2066696C74726F206E75737461747945
:102242006D75732E0D0A0041544425733B0D004DEC
:102252006F64656D20536C65657020656E61626C9C
:1022620065642E0D0A004D6F64656D20536C6565C3
:0E227200702064697361626C65642E0D0A0051
:00000001FF
