:100000000C945C000C947B000C9492000C9479008E
:100010000C9479000C9479000C9479000C9479007C
:100020000C9479000C9479000C9479000C9479006C
:100030000C9479000C9479000C9479000C9479005C
:100040000C94A9000C9479000C94EE050C941C06F9
:100050000C9479000C9479000C9479000C9479003C
:100060000C9479000C94790041542B434C49503D39
:10007000310D0041542B43504D533D22534D222C02
:1000800022534D222C22534D220D0041542B434D1F
:1000900047463D310D00415445300D0041540D009F
:1000A00041540D0041542B435245473F0D004154EC
:1000B0002B435245473F0D0011241FBECFEFD8E020
:1000C000DEBFCDBF14E0A0E0B1E0E4EEF9E102C094
:1000D00005900D92AA3FB107D9F725E0AAEFB4E049
:1000E00001C01D92A734B207E1F70E94E2010C940F
:1000F000F00C0C9400001F920F920FB60F92112477
:100100008F939F938FE39CE90197F1F700C0000064
:1001100081E08093FD049F918F910F900FBE0F900F
:100120001F9018951F920F920FB60F9211248F9364
:100130009F938FE39CE90197F1F700C0000081E0F5
:100140008093FA049F918F910F900FBE0F901F9094
:1001500018951F920F920FB60F9211242F938F9321
:100160009F938091FB049091FC048C3B9F4720F06F
:100170001092FC041092FB048091FB049091FC040B
:1001800001969093FC048093FB049F918F912F9193
:100190000F900FBE0F901F9018950F931F93CF9342
:1001A000DF93EC011092FC041092FB0416BC86E075
:1001B00091E00E9430038091FB049091FC048C1725
:1001C0009D0708F04BC010E001E09091FD049130D4
:1001D00069F40E9403031092FD041092FC04109233
:1001E000FB0488E291E00E943003102F9091FA0402
:1001F000913039F50E9413038FE19EE40197F1F7E6
:1002000000C000004B991DC01092FA049FEF24E338
:100210008CE0915020408040E1F700C000004B99F5
:1002200010C086E491E00E94300380E096E90E94CD
:100230005C0387E591E00E9430038FE691E00E9425
:100240008D060E9411030E9405032091FB0430914A
:10025000FC042C173D0708F4B8CF01C010E0812F33
:10026000DF91CF911F910F910895DF92EF92FF924E
:100270000F931F93CF93DF93CDB7DEB760970FB681
:10028000F894DEBF0FBECDBF7C018B011092FC0441
:100290001092FB0416BC84E791E00E943003D12C3D
:1002A00032C08091FD04813019F50E940303109241
:1002B000FD041092FC041092FB04D39488E291E0B8
:1002C0000E94300385E991E00E9430034AE0BE01BC
:1002D0006F5F7F4F8D2D90E00E94DC09CE0101966B
:1002E0000E94300387ED91E00E9430030E940503D5
:1002F0002D2D30E0E216F30630F486EA91E00E94FC
:10030000300381E008C02091FB043091FC042017E9
:10031000310738F280E060960FB6F894DEBF0FBE6A
:10032000CDBFDF91CF911F910F91FF90EF90DF90A4
:100330000895CF93C82F289AA8958CEC91E00E943D
:10034000300380E096E90E945C03A8958AED91E075
:100350000E94300380E00E948704882369F182EFC5
:1003600091E00E943003A8958EEF91E00E94300347
:100370000E945A048823E1F08CE292E00E9430034C
:10038000A89586E492E00E9430036C2F83EB93E003
:100390000E941205882339F085E592E00E9430031F
:1003A000289881E00DC081E692E00E94300304C0ED
:1003B00084E792E00E94300328980E94050380E0C1
:1003C000CF910895209A2FEF80E792E0215080404E
:1003D0009040E1F700C000002A9A229A8FE19EE443
:1003E0000197F1F700C0000004B603FE0FC087EDCF
:1003F00091E00E9430038AE992E00E94300387ED89
:1004000091E00E94300384B7877F84BF80EB92E045
:100410000E9430030E94070383B7817F846083BFFB
:1004200089EC92E00E9430038FE19EE40197F1F79E
:1004300000C000008BED92E00E9430030E94960203
:100440000E943F0382EE92E00E94300387EE92E02A
:100450000E9430030E94C6020E943F038FEE92E08A
:100460000E94300383EF92E00E9430030E94050354
:10047000789466E970E085E090E00E943501882379
:1004800059F10E94030380E00E9499010E94110328
:100490008AE093E00E9430030E94050382E893E221
:1004A0000E94CD00882381F00E9413038FE193E026
:1004B0000E9430030E94030385E393E00E9430030F
:1004C00081E00E9499010CC08AE493E00E9430030D
:1004D00082E00E94990104C083E793E00E94300308
:1004E0000E9413030E9405038DE893E00E943003ED
:1004F0009FEF20E782E0915020408040E1F700C06C
:10050000000083B7816083BF889583B78E7F83BFE8
:100510009FEF20E782E0915020408040E1F700C04B
:10052000000088EA93E00E9430037ECFECE7F0E021
:100530001082808180648083808183608083EAE789
:10054000F0E0808187608083808180688083808103
:1005500080648083808186FDFDCFEAE7F0E08081C2
:100560008F7780836091780070917900660F771F94
:1005700080E090E00E945C0726EF38E24CE950E40E
:100580000E94EA070E943007CB010895ECE7F0E0F3
:100590001082808180648083808188608083EAE724
:1005A000F0E08081876080838081806880838081A3
:1005B00080648083808186FDFDCFEAE7F0E0808162
:1005C0008F778083609178007091790080E090E06F
:1005D0000E945C0723E333E343E950E40E94EA0707
:1005E00020E030E848E853E40E94CB060E94300740
:1005F000CB01089585B5856085BDEEE6F0E080818C
:10060000816080830895E8980895E89A08955A9A39
:100610005B9AE9E6F0E08081886080830E94FA02BC
:100620000895E99A0895E99808952FB7F8949AE003
:10063000E5B1EB7FE5B9000000000000000000001C
:10064000E1E3F0E03197F1F7E5B180FDE46080FF90
:10065000EB7FE5B9089487959A9591F72FBF089598
:10066000CF93DF93EC018881882331F021960E949B
:10067000150389918111FBCFDF91CF910895CF931D
:10068000DF93CDB7DEB760970FB6F894DEBF0FBE2D
:10069000CDBF4AE0BE016F5F7F4F0E94DC09CE01F3
:1006A00001960E94300360960FB6F894DEBF0FBE2D
:1006B000CDBFDF91CF910895CF92DF92EF92FF925D
:1006C0000F931F938C0120E030E06801790180E4F2
:1006D000C80E82E4D81E8FE0E81EF11CCC0CDD1C95
:1006E000EE1CFF1CCC0CDD1CEE1CFF1CC701B60170
:1006F000660F771F881F991F68017901CC0CDD1CDC
:10070000EE1CFF1CCC0CDD1CEE1CFF1CA70196018F
:10071000220F331F441F551F220F331F441F551F25
:100720000E944D08C90101970E9446061F910F9132
:10073000FF90EF90DF90CF9008950E945F068115A3
:100740009140D9F708952F923F924F925F926F9206
:100750007F928F929F92AF92BF92CF92DF92EF9251
:10076000FF920F931F93CF93DF9300D000D01F927F
:10077000CDB7DEB7F82E5B015D834C8328013901CC
:10078000E982DB82CA8261E070E080E490E00E944E
:100790006F088C01009709F46DC080E4F801119294
:1007A0008A95E9F7A114B10409F466C00E949D037B
:1007B000FF2021F0C5010E949C065EC0C5010E9479
:1007C0008D065AC0FFEFCF1ADF0AEF0AFF0A22E0B8
:1007D0002A95F1F700C00E945F068115E1E09E07AF
:1007E00031F4C414D504E604F70461F705C0C41459
:1007F000D504E604F70430F080EC93E00E94300367
:10080000F12C23C0F50181935F0193948C819D812C
:10081000009731F0BC01C8010E94C209892B79F40C
:1008200066ED73E0C8010E94C209892B59F49FE369
:10083000991651F0C22CD32CE82CF12CCCCFFF24EC
:10084000F39403C0F12C01C0F12CE981EE2369F08F
:100850008A819B81009749F09E1638F4FF2029F089
:10086000492D50E0B8010E94B209C8010E94230935
:100870008F2D08C080E006C05801912C212C312C0E
:10088000812CD8CF0F900F900F900F900F90DF9189
:10089000CF911F910F91FF90EF90DF90CF90BF907D
:1008A000AF909F908F907F906F905F904F903F9010
:1008B0002F900895CF92DF92EF920F931F93C12C48
:1008C000D12CE12C00E41BE42CE430E04CED53E0AF
:1008D0006EEA70E081E00E94A303811111C000E480
:1008E0001BE42CE430E047EE53E064EA70E081E082
:1008F0000E94A30391E0811101C090E0892F01C003
:1009000081E01F910F91EF90DF90CF900895CF92EB
:10091000DF92EF920F931F938823B9F0C12CD12C53
:10092000E12C00E211EA27E030E042EF53E060EA18
:1009300070E081E00E94A303882381F38FE19EE4AD
:100940000197F1F700C0000017C0C12CD12CE12C99
:1009500000E211EA27E030E042EF53E06CE970E09A
:1009600081E00E94A303EFE1FEE43197F1F700C0BC
:100970000000882309F450C0C12CD12CE12C00E2E6
:1009800011EA27E030E042EF53E066E970E081E0F1
:100990000E94A303882309F43FC08FE19EE40197DE
:1009A000F1F700C0000000E211EA27E030E042EF7A
:1009B00053E06BE870E081E00E94A303882361F1BB
:1009C000EFE1FEE43197F1F700C0000000E211EA28
:1009D00027E030E042EF53E063E770E081E00E94FF
:1009E000A3038823C9F08FE19EE40197F1F700C0CB
:1009F000000000E211EA27E030E042EF53E068E651
:100A000070E081E00E94A303882331F0EFE1FEE46F
:100A10003197F1F700C000001F910F91EF90DF9028
:100A2000CF900895CF92DF92EF92FF920F931F9392
:100A3000CF93DF93182F092FF62E61E070E080E24C
:100A400090E00E946F08EC01009709F4BDC020E21D
:100A5000FC01822F11928A95E9F70F931F9385EF7E
:100A600093E09F938F931F922F93DF93CF930E94D6
:100A7000010AC12CD12CE12C00E814E82EE130E071
:100A800043E054E0BE0180E00E94A303182F8DB71D
:100A90009EB708960FB6F8949EBF0FBE8DBF112368
:100AA00009F48DC0F11026C0EFE1FEE43197F1F7B3
:100AB00000C000008BED92E00E948D060E9496021D
:100AC0000E94AE0682EE92E00E948D0687EE92E0D2
:100AD0000E948D060E94C6020E94AE068FEE92E032
:100AE0000E948D0684E394E00E948D068AE10E94B4
:100AF000780646C0F1E0FF1220C08BED92E00E9424
:100B00008D060E9496020E94AE0682EE92E00E943E
:100B10008D0687EE92E00E948D060E94C6020E941A
:100B2000AE068FEE92E00E948D0689E594E00E9469
:100B30008D068AE10E94780623C082E0F81220C068
:100B40008BED92E00E948D060E9496020E94AE06F6
:100B500082EE92E00E948D0687EE92E00E948D0662
:100B60000E94C6020E94AE068FEE92E00E948D06A1
:100B70008FE794E00E948D068AE10E9478061FC0EC
:100B80008BED92E00E948D060E9496020E94AE06B6
:100B900082EE92E00E948D0687EE92E00E948D0622
:100BA0000E94C6020E94AE068FEE92E00E948D0661
:100BB00083EE94E00E948D068AE10E947806CE01C1
:100BC0000E942309812F01C080E0DF91CF911F9106
:100BD0000F91FF90EF90DF90CF9008951F920F92AA
:100BE0000FB60F9211242F938F939F93EF93FF9340
:100BF0008091C0002091C6008871E0910005EF5FF0
:100C0000EF719091FF04E91739F0E0930005F0E0EF
:100C1000ED5FFA4F208301C082E09091FE04892BA2
:100C20008093FE04FF91EF919F918F912F910F90F0
:100C30000FBE0F901F9018951F920F920FB60F9234
:100C400011248F939F93EF93FF93909102058091CE
:100C50000105981769F0E0910105EF5FEF71E093EE
:100C60000105F0E0ED5DFA4F80818093C60005C07C
:100C7000E1ECF0E080818F7D8083FF91EF919F9187
:100C80008F910F900FBE0F901F9018951092020534
:100C900010920105109200051092FF04992324F48C
:100CA00022E02093C0009F779093C5008093C400FA
:100CB00088E98093C10086E08093C20008959091F6
:100CC00000058091FF04981781F0E091FF04EF5F29
:100CD000EF71E093FF04F0E0ED5FFA4F80819091B7
:100CE000FE041092FE0490E0089580E091E00895E3
:100CF000209102052F5F2F71909101052917E1F3D3
:100D0000E22FF0E0ED5DFA4F808320930205E1ECE5
:100D1000F0E08081806280830895CF93DF93EC01BF
:100D20008881882331F021960E947806899181116B
:100D3000FBCFDF91CF910895CF93DF93EC01219604
:100D4000FC018491882339F00E947806FE01849189
:100D500021968111F9CFDF91CF910895CF93DF9341
:100D6000CDB7DEB760970FB6F894DEBF0FBECDBF2C
:100D70004AE0BE016F5F7F4F0E94DC09CE01019601
:100D80000E948D0660960FB6F894DEBF0FBECDBFF1
:100D9000DF91CF9108955058BB27AA270ED0E0C00D
:100DA000D1D030F0D6D020F031F49F3F11F41EF4B2
:100DB000C6C00EF4E095E7FBBCC0E92FE2D080F39B
:100DC000BA17620773078407950718F071F49EF548
:100DD000FAC00EF4E0950B2EBA2FA02D0B01B9012D
:100DE00090010C01CA01A0011124FF27591B99F0A1
:100DF000593F50F4503E68F11A16F040A22F232FAD
:100E0000342F4427585FF3CF469537952795A795FC
:100E1000F0405395C9F77EF41F16BA0B620B730BA3
:100E2000840BBAF09150A1F0FF0FBB1F661F771F14
:100E3000881FC2F70EC0BA0F621F731F841F48F4C9
:100E4000879577956795B795F7959E3F08F0B3CF4F
:100E50009395880F08F09927EE0F97958795089539
:100E600098D088F09F5790F0B92F9927B751A0F0EC
:100E7000D1F0660F771F881F991F1AF0BA95C9F72E
:100E800012C0B13081F09FD0B1E008959CC0672FAF
:100E9000782F8827B85F39F0B93FCCF386957795DE
:100EA0006795B395D9F73EF49095809570956195C7
:100EB0007F4F8F4F9F4F0895E89409C097FB3EF4F2
:100EC00090958095709561957F4F8F4F9F4F992397
:100ED000A9F0F92F96E9BB279395F6958795779515
:100EE0006795B795F111F8CFFAF4BB0F11F460FFD5
:100EF0001BC06F5F7F4F8F4F9F4F16C0882311F02D
:100F000096E911C0772321F09EE8872F762F05C040
:100F1000662371F096E8862F70E060E02AF09A95DB
:100F2000660F771F881FDAF7880F9695879597F9D0
:100F3000089597F99F6780E870E060E008959FEF5B
:100F400080EC089500240A94161617061806090660
:100F5000089500240A94121613061406050608952F
:100F6000092E0394000C11F4882352F0BB0F40F4B7
:100F7000BF2B11F460FF04C06F5F7F4F8F4F9F4FF7
:100F8000089557FD9058440F551F59F05F3F71F079
:100F90004795880F97FB991F61F09F3F79F08795E0
:100FA0000895121613061406551FF2CF4695F1DF69
:100FB00008C0161617061806991FF1CF86957105F9
:100FC000610508940895E894BB2766277727CB012D
:100FD00097F908950BD0C4CFB5DF28F0BADF18F029
:100FE000952309F0A6CFABCF1124EECFCADFA0F333
:100FF000959FD1F3950F50E0551F629FF001729FAE
:10100000BB27F00DB11D639FAA27F00DB11DAA1FCC
:10101000649F6627B00DA11D661F829F2227B00D19
:10102000A11D621F739FB00DA11D621F839FA00DA4
:10103000611D221F749F3327A00D611D231F849FF4
:10104000600D211D822F762F6A2F11249F5750404B
:101050008AF0E1F088234AF0EE0FFF1FBB1F661FE6
:10106000771F881F91505040A9F79E3F510570F09F
:1010700060CFAACF5F3FECF3983EDCF3869577957F
:101080006795B795F795E7959F5FC1F7FE2B880F9A
:10109000911D9695879597F90895A1E21A2EAA1B9E
:1010A000BB1BFD010DC0AA1FBB1FEE1FFF1FA21718
:1010B000B307E407F50720F0A21BB30BE40BF50B15
:1010C000661F771F881F991F1A9469F7609570959E
:1010D000809590959B01AC01BD01CF0108950F93C0
:1010E0001F93CF93DF93869F8001879F100D969F5C
:1010F000100D1124C8010E948B08EC01009729F003
:10110000A80160E070E00E94BB09CE01DF91CF91A1
:101110001F910F910895CF93DF938230910510F4C2
:1011200082E090E0E0914505F091460520E030E056
:10113000A0E0B0E0309739F140815181481759075C
:10114000B8F04817590771F482819381109729F0FC
:1011500013969C938E9312972CC090934605809380
:10116000450527C02115310531F04217530718F006
:10117000A901DB0101C0EF019A01BD01DF0102807D
:10118000F381E02DD7CF21153105F9F0281B390B5C
:101190002430310580F48A819B816115710521F02D
:1011A000FB019383828304C0909346058093450599
:1011B000FE01329644C0FE01E20FF31F819391932A
:1011C00022503109398328833AC020914305309158
:1011D0004405232B41F42091020130910301309307
:1011E0004405209343052091000130910101211510
:1011F000310541F42DB73EB74091040150910501EE
:10120000241B350BE0914305F0914405E217F307E9
:10121000A0F42E1B3F0B2817390778F0AC014E5F66
:101220005F4F2417350748F04E0F5F1F509344055A
:10123000409343058193919302C0E0E0F0E0CF0139
:10124000DF91CF910895CF93DF93009709F487C082
:10125000FC01329713821282C0914505D091460558
:10126000209781F420813181280F391F8091430517
:10127000909144058217930779F5F0934405E09324
:1012800043056DC0DE0120E030E0AE17BF0750F42B
:1012900012964D915C9113979D014115510509F1ED
:1012A000DA01F3CFB383A28340815181840F951F6C
:1012B0008A179B0771F48D919C911197840F951F4C
:1012C00002969183808312968D919C9113979383BC
:1012D00082832115310529F4F0934605E0934505F5
:1012E0003EC0D9011396FC93EE9312974D915D91F8
:1012F000A40FB51FEA17FB0779F480819181840F51
:10130000951F0296D90111969C938E9382819381A9
:1013100013969C938E931297E0E0F0E08A819B8174
:10132000009719F0FE01EC01F9CFCE010296288159
:101330003981820F931F209143053091440528176E
:10134000390769F4309729F4109246051092450543
:1013500002C013821282D0934405C0934305DF91EB
:10136000CF910895FB01DC0102C001900D92415024
:101370005040D8F70895DC0101C06D9341505040B2
:10138000E0F70895FB0151915523A9F0BF01DC015D
:101390004D9145174111E1F759F4CD01019000201D
:1013A00049F04D9140154111C9F3FB014111EFCFB7
:1013B00081E090E001970895BB274A3031F49923EA
:1013C00022F4BDE2909581959F4F0C94E809BB27CC
:1013D000FB015527AA27880F991FAA1FA41710F0F1
:1013E000A41B83955051B9F7A05DAA3308F0A95DFD
:1013F000A193009779F7B111B1931192CB010C949D
:10140000190CAEE0B0E0E7E0FAE00C94C70C0D89EF
:101410001E898F89988D26E02C831A83098397FF74
:1014200002C080E090E801979E838D83AE01455E07
:101430005F4F698D7A8DCE0101960E94310A4D81F0
:101440005E8157FD0AC02F813885421753070CF47F
:101450009A01F801E20FF31F10822E96E4E00C943B
:10146000E30CACE0B0E0E7E3FAE00C94B90C7C01EB
:101470006B018A01FC0117821682838181FFBDC145
:10148000CE0101964C01F7019381F60193FD859100
:1014900093FF81916F01882309F4ABC1853239F440
:1014A00093FD859193FF81916F01853229F4B701F6
:1014B00090E00E94290CE7CF512C312C20E0203203
:1014C000A0F48B3269F030F4803259F0833269F441
:1014D00020612CC08D3239F0803339F4216026C070
:1014E0002260246023C0286021C027FD27C030ED82
:1014F000380F3A3078F426FF06C0FAE05F9E300DD0
:101500001124532E13C08AE0389E300D1124332E3F
:1015100020620CC08E3221F426FD6BC1206406C00F
:101520008C3611F4206802C0883641F4F60193FD30
:10153000859193FF81916F018111C1CF982F9F7D7C
:101540009554933028F40C5F1F4FFFE3F9830DC0CF
:10155000833631F0833771F0833509F05BC022C0E8
:10156000F801808189830E5F1F4F44244394512CDE
:10157000540115C03801F2E06F0E711CF801A08013
:10158000B18026FF03C0652D70E002C06FEF7FEFD2
:10159000C5012C870E940E0C2C0183012C852F770E
:1015A000222E17C03801F2E06F0E711CF801A080E6
:1015B000B18026FF03C0652D70E002C06FEF7FEFA2
:1015C000C5012C870E94030C2C012C852068222E3B
:1015D000830123FC1BC0832D90E048165906B0F40C
:1015E000B70180E290E00E94290C3A94F4CFF50113
:1015F00027FC859127FE81915F01B70190E00E9451
:10160000290C31103A94F1E04F1A51084114510459
:1016100071F7E5C0843611F0893639F5F80127FFF6
:1016200007C060817181828193810C5F1F4F08C068
:1016300060817181882777FD8095982F0E5F1F4FFD
:101640002F76B22E97FF09C0909580957095619581
:101650007F4F8F4F9F4F2068B22E2AE030E0A401C9
:101660000E945B0CA82EA81844C0853729F42F7E51
:10167000B22E2AE030E025C0F22FF97FBF2E8F3640
:10168000C1F018F4883579F0B4C0803719F0883784
:1016900021F0AFC02F2F2061B22EB4FE0DC08B2DD4
:1016A0008460B82E09C024FF0AC09F2F9660B92E0F
:1016B00006C028E030E005C020E130E002C020E1B3
:1016C00032E0F801B7FE07C06081718182819381A9
:1016D0000C5F1F4F06C06081718180E090E00E5F5B
:1016E0001F4FA4010E945B0CA82EA818FB2DFF77AA
:1016F000BF2EB6FE0BC02B2D2E7FA51450F4B4FECA
:101700000AC0B2FC08C02B2D2E7E05C07A2C2B2DD2
:1017100003C07A2C01C0752C24FF0DC0FE01EA0D18
:10172000F11D8081803311F4297E09C022FF06C09B
:101730007394739404C0822F867809F0739423FD08
:1017400013C020FF06C05A2C731418F4530C5718FA
:10175000732C731468F4B70180E290E02C870E9428
:10176000290C73942C85F5CF731410F4371801C02D
:10177000312C24FF12C0B70180E390E02C870E9437
:10178000290C2C8522FF17C021FF03C088E590E0BB
:1017900002C088E790E0B7010CC0822F867859F02C
:1017A00021FD02C080E201C08BE227FD8DE2B7017E
:1017B00090E00E94290CA51438F4B70180E390E072
:1017C0000E94290C5A94F7CFAA94F401EA0DF11D56
:1017D0008081B70190E00E94290CA110F5CF332041
:1017E00009F451CEB70180E290E00E94290C3A94AE
:1017F000F6CFF7018681978102C08FEF9FEF2C967D
:10180000E2E10C94D50CFC01059061507040011090
:10181000D8F7809590958E0F9F1F0895FC01615019
:10182000704001900110D8F7809590958E0F9F1F02
:101830000895DC01FC01672F71917723E1F732975E
:1018400004C07C916D9370836291AE17BF07C8F39B
:1018500008950F931F93CF93DF93182F092FEB0158
:101860008B8181FD03C08FEF9FEF20C082FF10C0EE
:101870004E815F812C813D81421753077CF4E881C2
:10188000F9819F012F5F3F4F39832883108306C062
:10189000E885F985812F0995892B29F72E813F81CC
:1018A0002F5F3F4F3F832E83812F902FDF91CF916A
:1018B0001F910F910895FA01AA27283051F1203184
:1018C00081F1E8946F936E7F6E5F7F4F8F4F9F4FD4
:1018D000AF4FB1E03ED0B4E03CD0670F781F891F16
:1018E0009A1FA11D680F791F8A1F911DA11D6A0FE4
:1018F000711D811D911DA11D20D009F468943F9197
:101900002AE0269F11243019305D3193DEF6CF0195
:101910000895462F4770405D4193B3E00FD0C9F75B
:10192000F6CF462F4F70405D4A3318F0495D31FDC8
:101930004052419302D0A9F7EACFB4E0A69597951B
:10194000879577956795BA95C9F7009761057105F1
:1019500008959B01AC010A2E06945795479537953B
:101960002795BA95C9F7620F731F841F951FA01D95
:1019700008952F923F924F925F926F927F928F9233
:101980009F92AF92BF92CF92DF92EF92FF920F930E
:101990001F93CF93DF93CDB7DEB7CA1BDB0B0FB618
:1019A000F894DEBF0FBECDBF09942A8839884888D5
:1019B0005F846E847D848C849B84AA84B984C8846B
:1019C000DF80EE80FD800C811B81AA81B981CE0F62
:1019D000D11D0FB6F894DEBF0FBECDBFED01089547
:0419E000F894FFCFA9
:1019E40000004705200057616974696E6720666FBF
:1019F40072206D6F76656D656E7420746F206669F4
:101A04006E6973682E0D0A004576656E74206465F0
:101A14007465637465642C20706F7374706F6E6981
:101A24006E672E0D0A0052494E4720646574656343
:101A34007465642E0D0A00416E73776572696E6772
:101A44002070686F6E652063616C6C2E0D0A004116
:101A540054410D00436865636B696E6720697320A8
:101A64006D6F76656D656E74206973206C6567694A
:101A7400742E0D0A004D6F76656D656E7420636F6C
:101A8400756E743A20004D6F76656D656E742069CD
:101A940073206C656769742C206368616E67696E76
:101AA40067207374617475732E0D0A0047534D20BB
:101AB4007461736B2E2E2E0D0A00436865636B6987
:101AC4006E67206D6F64656D2073657475702E0D7F
:101AD4000A005365747570206F6B2E0D0A004368FD
:101AE40065636B696E67206966206D6F64656D2040
:101AF4006973207265676973746572656420746FB5
:101B0400206E6574776F726B2E0D0A0052656769DB
:101B14007374657220746F206E6574776F726B20B6
:101B24006F6B2E0D0A0053656E64696E6720534D0A
:101B3400532E0D0A00534D532073656E742E0D0AF7
:101B440000534D532073656E64206661696C65644F
:101B54002E0D0A004D6F64656D206973206E6F74DD
:101B6400207265676973746572656420746F206E92
:101B74006574776F726B2E0D0A005265636F76651C
:101B84007279206166746572205744542E0D0A00E0
:101B94005374616E6461727420696E697420737425
:101BA40061727465642E0D0A00536C656570206D56
:101BB4006F6465207365742E0D0A00566261743A71
:101BC40020006D560D0A0054656D702E3A200043B6
:101BD4000D0A004D6F6E69746F72696E67206D6FC8
:101BE40076656D656E742E0D0A0052696E67206409
:101BF4006574656374696F6E206F6E2E0D0A0052F2
:101C0400494E4720646574656374696F6E206F661E
:101C1400662E0D0A004D6F76656D656E74206669DB
:101C24006E69736865642E0D0A004E6F206D6F76C1
:101C3400656D656E7420646574656374656420699C
:101C44006E20776169742066756E6374696F6E2E99
:101C54000D0A004D6F76656D656E74207761732093
:101C64006E6F74206C656769742E0D0A00494E54BA
:101C740030206F6E2C20476F696E6720746F20735D
:101C84006C6565702E0D0A00576F6B652075702E9C
:101C94000D0A002B333730363132313737383800BC
:101CA400415420636F6D6D616E642074696D656F5E
:101CB40075742E0D0A004552524F52002B43524563
:101CC400473A20302C31002B435245473A20302CE0
:101CD40035004F4B0041542B434D47533D22257350
:101CE400220D003E004A75646573696F206E65625B
:101CF400657261206A617520356D696E2E2E2052E1
:101D0400797379732061746A756E6769616D617343
:101D14002E0D0A0053697374656D612073756A75BD
:101D240064696E74612C20727973797320696A75A1
:101D34006E677461732E0D0A004A75646573797356
:101D440020626169676573692E2052797379732003
:101D540061746A756E6769616D61732E0D0A005056
:101D640065722070616772696E64696E69206C6166
:101D7400696B6F74617270692073697374656D61E6
:101D8400206E6573756A7564656A6F2C2072656B65
:101D94006F6D656E64756F6A616D612070616B65EE
:101DA40069737469207069726D696E696F20666900
:101DB4006C74726F206E7573746174796D75732EA3
:101DC4000D0A0050726F6772616D206572726F72D6
:0A1DD4002E0041544425733B0D001E
:00000001FF
