:100000000C947B000C949A000C94B1000C94980012
:100010000C9498000C9498000C9498000C94980000
:100020000C9498000C9498000C9498000C949800F0
:100030000C9498000C9498000C9498000C949800E0
:100040000C94C8000C9498000C9400070C942E0794
:100050000C9498000C9498000C9498000C949800C0
:100060000C9498000C94980041542B434D47444104
:100070003D2244454C20414C4C220D0041542B4321
:1000800053434C4B3D310D0041542B434D49433DAF
:10009000302C31350D0041542B435245473D300D36
:1000A0000041542B434C49503D310D0041542B43EA
:1000B000504D533D22534D222C22534D222C22537E
:1000C0004D220D0041542B434D47463D310D00411B
:1000D0005445300D0041540D0041540D0041542B46
:1000E000435245473F0D0041542B435245473F0D76
:1000F0000041540D000011241FBECFEFD8E0DEBF39
:10010000CDBF17E0A0E0B1E0E0E7FBE102C0059061
:100110000D92AA33B107D9F727E0AAE3B7E001C0EF
:100120001D92A738B207E1F70E9410020C94B60D99
:100130000C9400001F920F920FB60F9211248F9310
:100140009F938FE39CE90197F1F700C0000081E0E5
:1001500080933D079F918F910F900FBE0F901F903E
:1001600018951F920F920FB60F9211248F939F93A1
:100170008FE39CE90197F1F700C0000081E08093D4
:100180003A079F918F910F900FBE0F901F90189577
:100190001F920F920FB60F9211242F938F939F935C
:1001A00080913B0790913C078C3B9F4720F0109239
:1001B0003C0710923B0780913B0790913C070196CA
:1001C00090933C0780933B079F918F912F910F90C5
:1001D0000FBE0F901F9018950F931F93CF93DF932F
:1001E000EC0110923C0710923B0716BC86E091E0B0
:1001F0000E94700380913B0790913C078C179D07EC
:1002000008F04BC010E001E090913D07913069F497
:100210000E94A50310923D0710923C0710923B07E5
:1002200088E291E00E947003102F90913A0791307C
:1002300039F50E94B8038FE19EE40197F1F700C001
:1002400000004B9B1DC010923A079FEF24E38CE007
:10025000915020408040E1F700C000004B9B10C04F
:1002600086E491E00E9470030E94F10687E591E028
:100270000E9470038FE691E00E949F070E94E206B1
:100280000E94B6030E94A70320913B0730913C07D0
:100290002C173D0708F4B8CF01C010E0812FDF9183
:1002A000CF911F910F910895CF92DF92EF92FF921D
:1002B0001F93CF93DF93CDB7DEB760970FB6F89457
:1002C000DEBF0FBECDBF6C017B0110923C071092C8
:1002D0003B0716BC84E791E00E94700310E032C037
:1002E00090913D07913019F50E94A50310923D07AA
:1002F00010923C0710923B071F5F88E291E00E943A
:10030000700385E991E00E9470034AE0BE016F5FCF
:100310007F4F812F90E00E949C0ACE0101960E949F
:1003200070038EE295E00E9470030E94A703212FC4
:1003300030E0C216D30630F486EA91E00E947003E2
:1003400081E008C020913B0730913C072E153F0506
:1003500038F280E060960FB6F894DEBF0FBECDBFD6
:10036000DF91CF911F91FF90EF90DF90CF90089594
:10037000CF93C82F8CEC91E00E9470030E94F1068D
:100380008AED91E00E9470030E94BF048823E9F186
:1003900088E092E00E94700382E292E00E94700383
:1003A0006C2F81EF94E00E941A06882349F188E5BA
:1003B00092E00E94700381E392E00E9470032FEFAD
:1003C00083E294EF215080409040E1F700C00000AC
:1003D0008DE392E00E9470036C2F84EE94E00E9403
:1003E0001A06882329F082E592E00E94700304C077
:1003F00084E692E00E9470030E94E20681E00EC053
:100400008AE792E00E94700304C08DE892E00E94A7
:1004100070030E94A7030E94E20680E0CF91089536
:100420002FEF80E792E0215080409040E1F700C03C
:1004300000002A9A229A2FEF80E792E02150804014
:100440009040E1F700C0000083EB92E00E9470034F
:1004500080E096E90E94BA0378942FEF80E792E05B
:10046000215080409040E1F700C000008EEC92E007
:100470000E9470030E94C0060E94F10687EE92E07F
:100480000E9470034B9B06C089E093E00E947003BA
:100490000E94CC062FEF80E792E0215080409040F0
:1004A000E1F700C000004B993FC08FE293E00E944B
:1004B00070030E94A60481111FC0CBE0D0E08FE43E
:1004C00093E00E9470032FEF84E39CE02150804072
:1004D0009040E1F700C000000E94A604882329F0A4
:1004E0008EE593E00E94700302C0219741F783E7F5
:1004F00093E00E94700304C08EE993E00E947003B1
:1005000080E00E94EC04882329F087EA93E00E94AF
:1005100070030AC082EC93E00E9470034B9904C000
:100520008AED93E00E9470030E94E2068FE19EE450
:100530000197F1F700C0000083E094E00E9470038F
:100540000E94A90383B7817F846083BF8CE194E01C
:100550000E9470038FE19EE40197F1F700C0000054
:100560008EE294E00E9470030E9424030E947F03A5
:1005700085E394E00E9470038AE394E00E94700394
:100580000E94A7036CE370E08FE090E00E945401AA
:10059000882381F10E94A5039FEF20E782E091501C
:1005A00020408040E1F700C0000080E00E94B801D8
:1005B0000E94B60381E594E00E9470030E94A703A5
:1005C00082E893E20E94EC00882361F00E94B80365
:1005D0000E94A50386E694E00E94700381E00E94D9
:1005E000B8010CC08BE794E00E94700382E00E9487
:1005F000B80104C084EA94E00E9470030E94B8032A
:100600000E94A7038EEB94E00E9470039FEF20E707
:1006100082E0915020408040E1F700C0000083B7A5
:10062000816083BF889583B78E7F83BF9FEF20E76C
:1006300082E0915020408040E1F700C0000089ED49
:1006400094E00E94700386CFECE7F0E01082808196
:1006500080648083808183608083EAE7F0E0108299
:1006600080818760808380818068808380818064CE
:100670008083808186FDFDCFEAE7F0E080818F777F
:1006800080836091780070917900660F771F80E019
:1006900090E00E940C0822E538EB4EE250E40E9404
:1006A0009A080E94DD07CB0108952FB7F8949AE0CD
:1006B000E5B1EB7FE5B9000000000000000000009C
:1006C000E1E3F0E03197F1F7E5B180FDE46080FF10
:1006D000EB7FE5B9089487959A9591F72FBF089518
:1006E000CF93DF93EC018881882331F021960E941B
:1006F000550389918111FBCFDF91CF910895CF935D
:10070000DF93CDB7DEB760970FB6F894DEBF0FBEAC
:10071000CDBF4AE0BE016F5F7F4F0E949C0ACE01B1
:1007200001960E94700360960FB6F894DEBF0FBE6C
:10073000CDBFDF91CF91089585B5856085BDEEE68B
:10074000F0E08081816080830895E8980895E89AB8
:1007500008955A9A5B9AE9E6F0E080818860808388
:100760008081846080830E949C030895E99A0895A3
:10077000E99808950F931F938C0120E030E0D90190
:10078000C801805C9D4BA04FBF4F880F991FAA1FC7
:10079000BB1F880F991FAA1FBB1FBC01CD01660F8D
:1007A000771F881F991F000F111F221F331F000F73
:1007B000111F221F331FA9019801220F331F441F4D
:1007C000551F220F331F441F551F0E940709C901DF
:1007D00001970E9458071F910F9108950E94710779
:1007E00081159140D9F708952F923F924F925F92D1
:1007F0006F927F928F929F92AF92BF92CF92DF9231
:10080000EF92FF920F931F93CF93DF9300D000D00E
:100810001F92CDB7DEB7F82E5B015D834C832801B4
:100820003901E982DB82CA8261E070E080E490E015
:100830000E9429098C01892B09F46FC080E4F8011A
:1008400011928A95E9F7A114B10409F441C00E94FC
:10085000EE03FF2021F0C5010E94AE0739C0C5019B
:100860000E949F0735C0FFEFCF1ADF0AEF0AFF0A89
:1008700022E02A95F1F700C00E9471078115E1E09E
:100880009E0739F4C414D504E604F70461F7F12C8B
:100890002FC0C414D504E604F70420F5F5018193B4
:1008A0005F0193948C819D81009731F0BC01C80158
:1008B0000E94820A892BC1F46EEF74E0C8010E9485
:1008C000820A892BA1F49FE3991207C0F12C10C072
:1008D0005801912C212C312C812CC22CD32CE82CAA
:1008E000F12CCACFF12C04C0FF24F39401C0F12CE9
:1008F000E981EE2369F08A819B81009749F09E1679
:1009000038F4FF2029F0492D50E0B8010E94720A06
:10091000C8010E94DA098F2D01C080E00F900F906E
:100920000F900F900F90DF91CF911F910F91FF903B
:10093000EF90DF90CF90BF90AF909F908F907F907F
:100940006F905F904F903F902F900895CF92DF92DD
:10095000EF920F931F93C12CD12CE12C00E211EAEE
:1009600027E030E044E055E061EF70E081E00E9474
:10097000F4031F910F91EF90DF90CF900895CF92E5
:10098000DF92EF920F931F93C12CD12CE12C00E446
:100990001BE42CE430E047E055E067EE70E081E0D6
:1009A0000E94F403811111C000E41BE42CE430E048
:1009B00042E155E06DED70E081E00E94F40391E0CA
:1009C000811101C090E0892F01C081E01F910F913A
:1009D000EF90DF90CF900895CF92DF92EF920F9338
:1009E0001F93CF938823F1F0C12CD12CE12C00E28E
:1009F00011EA27E030E044E055E069ED70E081E085
:100A00000E94F403882381F32FEF80E792E02150C6
:100A100080409040E1F700C000008DE195E00E9429
:100A200070031FC0C12CD12CE12C00E211EA27E099
:100A300030E044E055E065ED70E081E00E94F403B1
:100A4000C82F2FEF80E792E0215080409040E1F7DF
:100A500000C000008DE195E00E947003CC2309F4F2
:100A6000E1C0C12CD12CE12C00E211EA27E030E0FA
:100A700044E055E06FEC70E081E00E94F403C82F81
:100A8000882309F4CFC02FEF80E792E02150804007
:100A90009040E1F700C0000081E395E00E94700300
:100AA00000E412E42FE030E044E055E064EC70E054
:100AB00081E00E94F403C82F882309F4B3C02FEF0C
:100AC00080E792E0215080409040E1F700C00000B4
:100AD0008EE395E00E94700300E412E42FE030E022
:100AE00044E055E06CEA70E081E00E94F403C82F16
:100AF000882309F497C084E595E00E9470032FEFE6
:100B000080E792E0215080409040E1F700C0000073
:100B100000E412E42FE030E044E055E061EA70E0E8
:100B200081E00E94F403C82F882309F47BC08CE67F
:100B300095E00E9470032FEF80E792E02150804003
:100B40009040E1F700C0000000E412E42FE030E044
:100B500044E055E066E970E081E00E94F403C82FAC
:100B6000882309F45FC082E895E00E9470032FEFAC
:100B700080E792E0215080409040E1F700C0000003
:100B800000E412E42FE030E044E055E068E870E073
:100B900081E00E94F403C82F882309F443C082EA4D
:100BA00095E00E9470032FEF80E792E02150804093
:100BB0009040E1F700C0000000E412E42FE030E0D4
:100BC00044E055E06CE770E081E00E94F403C82F38
:100BD000882341F18FEB95E00E9470032FEF80E7AF
:100BE00092E0215080409040E1F700C0000000E416
:100BF0001BE42CE430E044E055E068E670E081E07E
:100C00000E94F403C82F882369F086ED95E00E94C6
:100C100070032FEF80E792E0215080409040E1F791
:100C200000C000008C2FCF911F910F91EF90DF90AB
:100C3000CF900895CF92DF92EF92FF920F931F9380
:100C4000CF93DF93182F092FF62E61E070E080E23A
:100C500090E00E942909EC01009709F487C020E286
:100C6000FC01822F11928A95E9F70F931F938CEE66
:100C700095E09F938F931F922F93DF93CF930E94C2
:100C8000C10AC12CD12CE12C00E814E82EE130E09F
:100C90004AEF55E0BE0180E00E94F403182F8DB7A3
:100CA0009EB708960FB6F8949EBF0FBE8DBF112356
:100CB00009F457C0F11028C0EFE1FEE43197F1F7D5
:100CC00000C0000087E396E00E949F070E94240373
:100CD0000E94C0078FE396E00E949F070E942403B2
:100CE00088349D4028F482E496E00E949F0704C067
:100CF0008CE496E00E949F0783E596E00E949F07A0
:100D00008AE10E948A072DC021E0F21214C087E315
:100D100096E00E949F070E9424030E94C00785E37B
:100D200094E00E949F0788E796E00E949F078AE16F
:100D30000E948A0716C082E0F81213C087E396E08B
:100D40000E949F070E9424030E94C00785E394E04D
:100D50000E949F078EE996E00E949F078AE10E9409
:100D60008A07CE010E94DA09812F01C080E0DF915D
:100D7000CF911F910F91FF90EF90DF90CF9008954A
:100D80005D985D985D98559A569A579A5B9A8AE154
:100D90008A95F1F700C008955D9A2FEF8AED9AE1E8
:100DA000215080409040E1F700C000005D982FEF97
:100DB00081E19AE7215080409040E1F700C00000B7
:100DC00081E008955E9A2FEF80E792E02150804005
:100DD0009040E1F700C000008AE097E00E947003B5
:100DE00008955E982FEF80E792E021508040904078
:100DF000E1F700C0000081E297E00E9470030895CF
:100E00001F920F920FB60F9211242F938F939F93DF
:100E1000EF93FF938091C0002091C6008871E0910C
:100E20004007EF5FEF7190913F07E91739F0E093CA
:100E30004007F0E0ED5BF84F208301C082E0909125
:100E40003E07892B80933E07FF91EF919F918F91F1
:100E50002F910F900FBE0F901F9018951F920F9219
:100E60000FB60F9211248F939F93EF93FF9390915E
:100E7000420780914107981769F0E0914107EF5FC1
:100E8000EF71E0934107F0E0ED59F84F80818093D6
:100E9000C60005C0E1ECF0E080818F7D8083FF918A
:100EA000EF919F918F910F900FBE0F901F9018950B
:100EB00010924207109241071092400710923F078C
:100EC000992324F422E02093C0009F779093C500DB
:100ED0008093C40088E98093C10086E08093C200BB
:100EE00008959091400780913F07981781F0E09115
:100EF0003F07EF5FEF71E0933F07F0E0ED5BF84FE6
:100F0000808190913E0710923E0790E0089580E026
:100F100091E00895209142072F5F2F719091410732
:100F20002917E1F3E22FF0E0ED59F84F8083209389
:100F30004207E1ECF0E08081806280830895CF93E6
:100F4000DF93EC018881882331F021960E948A0783
:100F500089918111FBCFDF91CF910895CF93DF93DA
:100F6000EC012196FC018491882339F00E948A07C4
:100F7000FE01849121968111F9CFDF91CF910895DF
:100F8000CF93DF93CDB7DEB760970FB6F894DEBF8F
:100F90000FBECDBF4AE0BE016F5F7F4F0E949C0A2B
:100FA000CE0101960E949F0760960FB6F894DEBFAF
:100FB0000FBECDBFDF91CF9108950E94790888F0D0
:100FC0009F5798F0B92F9927B751B0F0E1F0660F0D
:100FD000771F881F991F1AF0BA95C9F714C0B1304E
:100FE00091F00E949308B1E008950C949308672F44
:100FF000782F8827B85F39F0B93FCCF3869577957D
:101000006795B395D9F73EF4909580957095619565
:101010007F4F8F4F9F4F0895E89409C097FB3EF490
:1010200090958095709561957F4F8F4F9F4F992335
:10103000A9F0F92F96E9BB279395F69587957795B3
:101040006795B795F111F8CFFAF4BB0F11F460FF73
:101050001BC06F5F7F4F8F4F9F4F16C0882311F0CB
:1010600096E911C0772321F09EE8872F762F05C0DF
:10107000662371F096E8862F70E060E02AF09A957A
:10108000660F771F881FDAF7880F9695879597F96F
:10109000089597F99F6780E870E060E008959FEFFA
:1010A00080EC089500240A941616170618060906FF
:1010B000089500240A9412161306140605060895CE
:1010C000092E0394000C11F4882352F0BB0F40F456
:1010D000BF2B11F460FF04C06F5F7F4F8F4F9F4F96
:1010E000089557FD9058440F551F59F05F3F71F018
:1010F0004795880F97FB991F61F09F3F79F087957F
:101100000895121613061406551FF2CF4695F1DF07
:1011100008C0161617061806991FF1CF8695710597
:10112000610508940895E894BB2766277727CB01CB
:1011300097F908950E94AD080C9460080E94520827
:1011400038F00E94590820F0952311F00C944908BA
:101150000C944F0811240C9494080E94710870F3A9
:10116000959FC1F3950F50E0551F629FF001729F4C
:10117000BB27F00DB11D639FAA27F00DB11DAA1F5B
:10118000649F6627B00DA11D661F829F2227B00DA8
:10119000A11D621F739FB00DA11D621F839FA00D33
:1011A000611D221F749F3327A00D611D231F849F83
:1011B000600D211D822F762F6A2F11249F575040DA
:1011C0009AF0F1F088234AF0EE0FFF1FBB1F661F55
:1011D000771F881F91505040A9F79E3F510580F01E
:1011E0000C9449080C9494085F3FE4F3983ED4F3C0
:1011F000869577956795B795F795E7959F5FC1F7C2
:10120000FE2B880F911D9695879597F90895A1E279
:101210001A2EAA1BBB1BFD010DC0AA1FBB1FEE1F70
:10122000FF1FA217B307E407F50720F0A21BB30BBB
:10123000E40BF50B661F771F881F991F1A9469F737
:1012400060957095809590959B01AC01BD01CF0193
:1012500008950F931F93CF93DF93869F8001879FFD
:10126000100D969F100D1124C8010E944509EC0134
:10127000009729F0A80160E070E00E947B0ACE018F
:10128000DF91CF911F910F910895CF93DF9382301B
:10129000910510F482E090E0E0918507F0918607D7
:1012A00020E030E0C0E0D0E0309711F14081518182
:1012B00048175907C0F04817590761F48281938194
:1012C000209719F09B838A832BC090938607809385
:1012D000850726C02115310519F04217530718F468
:1012E0009A01BE01DF01EF010280F381E02DDCCF26
:1012F0002115310509F1281B390B2430310590F4F3
:1013000012968D919C9113976115710521F0FB0147
:101310009383828304C09093860780938507FD01A1
:10132000329644C0FD01E20FF31F81939193225046
:1013300031092D933C933AC0209183073091840763
:10134000232B41F420910201309103013093840753
:10135000209383072091000130910101211531056F
:1013600041F42DB73EB74091040150910501241B73
:10137000350BE0918307F0918407E217F307A0F49F
:101380002E1B3F0B2817390778F0AC014E5F5F4FDB
:101390002417350748F04E0F5F1F50938407409382
:1013A00083078193919302C0E0E0F0E0CF01DF91E9
:1013B000CF9108950F931F93CF93DF93009709F474
:1013C0008CC0FC0132971382128200918507109124
:1013D00086070115110581F420813181820F931F49
:1013E00020918307309184072817390779F5F09306
:1013F0008407E093830771C0D80140E050E0AE1746
:10140000BF0750F412962D913C911397AD01211511
:10141000310509F1D901F3CF9D01DA01338322832C
:1014200060817181860F971F8217930769F4EC0121
:1014300028813981260F371F2E5F3F4F318320834C
:101440008A819B8193838283452B29F4F0938607BD
:10145000E093850742C01396FC93EE931297ED013B
:10146000499159919E01240F351FE217F30771F43A
:1014700080819181840F951F029611969C938E9383
:101480008281938113969C938E931297E0E0F0E013
:10149000D80112968D919C911397009719F0F8013D
:1014A0008C01F6CF8D919C9198012E5F3F4F820F5A
:1014B000931F20918307309184072817390769F417
:1014C000309729F4109286071092850702C0138284
:1014D00012821093840700938307DF91CF911F91AD
:1014E0000F910895FB01DC0102C001900D92415063
:1014F0005040D8F70895DC0101C06D934150504031
:10150000E0F70895FB0151915523A9F0BF01DC01DB
:101510004D9145174111E1F759F4CD01019000209B
:1015200049F04D9140154111C9F3FB014111EFCF35
:1015300081E090E001970895BB274A3031F4992368
:1015400022F4BDE2909581959F4F0C94A80ABB2789
:10155000FB015527AA27880F991FAA1FA41710F06F
:10156000A41B83955051B9F7A05DAA3308F0A95D7B
:10157000A193009779F7B111B1931192CB010C941B
:10158000D90CAEE0B0E0E7ECFAE00C948D0D0D89DB
:101590001E898F89988D26E02C831A83098397FFF3
:1015A00002C080E090E801979E838D83AE01455E86
:1015B0005F4F698D7A8DCE0101960E94F10A4D81AF
:1015C0005E8157FD0AC02F813885421753070CF4FE
:1015D0009A01F801E20FF31F10822E96E4E00C94BA
:1015E000A90DACE0B0E0E7EFFAE00C947F0D7C01D0
:1015F0006B018A01FC0117821682838181FFBDC1C4
:10160000CE0101964C01F7019381F60193FD85917E
:1016100093FF81916F01882309F4ABC1853239F4BE
:1016200093FD859193FF81916F01853229F4B70174
:1016300090E00E94E90CE7CF512C312C20E02032C1
:10164000A0F48B3269F030F4803259F0833269F4BF
:1016500020612CC08D3239F0803339F4216026C0EE
:101660002260246023C0286021C027FD27C030ED00
:10167000380F3A3078F426FF06C0FAE05F9E300D4E
:101680001124532E13C08AE0389E300D1124332EBE
:1016900020620CC08E3221F426FD6BC1206406C08E
:1016A0008C3611F4206802C0883641F4F60193FDAF
:1016B000859193FF81916F018111C1CF982F9F7DFB
:1016C0009554933028F40C5F1F4FFFE3F9830DC04E
:1016D000833631F0833771F0833509F05BC022C067
:1016E000F801808189830E5F1F4F44244394512C5D
:1016F000540115C03801F2E06F0E711CF801A08092
:10170000B18026FF03C0652D70E002C06FEF7FEF50
:10171000C5012C870E94CE0C2C0183012C852F77CC
:10172000222E17C03801F2E06F0E711CF801A08064
:10173000B18026FF03C0652D70E002C06FEF7FEF20
:10174000C5012C870E94C30C2C012C852068222EF9
:10175000830123FC1BC0832D90E048165906B0F48A
:10176000B70180E290E00E94E90C3A94F4CFF501D1
:1017700027FC859127FE81915F01B70190E00E94CF
:10178000E90C31103A94F1E04F1A51084114510418
:1017900071F7E5C0843611F0893639F5F80127FF75
:1017A00007C060817181828193810C5F1F4F08C0E7
:1017B00060817181072E000C880B990B0E5F1F4F03
:1017C0002F76722E97FF09C0909580957095619540
:1017D0007F4F8F4F9F4F2068722E2AE030E0A40188
:1017E0000E94210DA82EA81844C0853729F42F7E09
:1017F000B22E2AE030E025C0F22FF97FBF2E8F36BF
:10180000C1F018F4883579F0B4C0803719F0883702
:1018100021F0AFC02F2F2061B22EB4FE0DC08B2D52
:101820008460B82E09C024FF0AC09F2F9660B92E8D
:1018300006C028E030E005C020E130E002C020E131
:1018400032E0F801B7FE07C0608171818281938127
:101850000C5F1F4F06C06081718180E090E00E5FD9
:101860001F4FA4010E94210DA82EA818FB2DFF7761
:101870007F2E76FE0BC0372D3E7FA51450F474FEEC
:101880000AC072FC08C0372D3E7E05C0BA2C372D29
:1018900003C0BA2C01C0B52C34FF0DC0FE01EA0D07
:1018A000F11D8081803311F4397E09C032FF06C0FA
:1018B000B394B39404C0832F867809F0B39433FDB6
:1018C00013C030FF06C05A2CB31418F4530C5B1825
:1018D000B32CB31468F4B70180E290E03C870E9417
:1018E000E90CB3943C85F5CFB31410F43B1801C058
:1018F000312C34FF12C0B70180E390E03C870E9496
:10190000E90C3C8532FF17C031FD03C088E790E049
:1019100002C088E590E0B7010CC0832F867859F0AB
:1019200031FF02C08BE201C080E237FD8DE2B701DA
:1019300090E00E94E90CA51438F4B70180E390E030
:101940000E94E90C5A94F7CFAA94F401EA0DF11D14
:101950008081B70190E00E94E90CA110F5CF3320FF
:1019600009F451CEB70180E290E00E94E90C3A946C
:10197000F6CFF7018681978102C08FEF9FEF2C96FB
:10198000E2E10C949B0DFC01059061507040011048
:10199000D8F7809590958E0F9F1F0895FC01615098
:1019A000704001900110D8F7809590958E0F9F1F81
:1019B0000895DC01FC01672F71917723E1F73297DD
:1019C00004C07C916D9370836291AE17BF07C8F31A
:1019D00008950F931F93CF93DF93FB01238121FD84
:1019E00003C08FEF9FEF28C022FF16C046815781AA
:1019F000248135814217530744F4A081B1819D01B0
:101A00002F5F3F4F318320838C93268137812F5F57
:101A10003F4F3783268310C0EB01092F182F008416
:101A2000F185E02D0995892BE1F68E819F81019644
:101A30009F838E83812F902FDF91CF911F910F91E4
:101A40000895FA01AA27283051F1203181F1E89454
:101A50006F936E7F6E5F7F4F8F4F9F4FAF4FB1E0A1
:101A60003ED0B4E03CD0670F781F891F9A1FA11D9C
:101A7000680F791F8A1F911DA11D6A0F711D811D9D
:101A8000911DA11D20D009F468943F912AE0269F62
:101A900011243019305D3193DEF6CF010895462FC1
:101AA0004770405D4193B3E00FD0C9F7F6CF462FA2
:101AB0004F70405D4A3318F0495D31FD405241930B
:101AC00002D0A9F7EACFB4E0A695979587957795C8
:101AD0006795BA95C9F700976105710508959B014F
:101AE000AC010A2E06945795479537952795BA95D8
:101AF000C9F7620F731F841F951FA01D08952F92B1
:101B00003F924F925F926F927F928F929F92AF928D
:101B1000BF92CF92DF92EF92FF920F931F93CF93DA
:101B2000DF93CDB7DEB7CA1BDB0B0FB6F894DEBF71
:101B30000FBECDBF09942A88398848885F846E8497
:101B40007D848C849B84AA84B984C884DF80EE80E1
:101B5000FD800C811B81AA81B981CE0FD11D0FB6EA
:101B6000F894DEBF0FBECDBFED010895F894FFCF0E
:101B700000008707200057616974696E6720666FEF
:101B800072206D6F76656D656E7420746F20666966
:101B90006E6973682E0D0A004576656E7420646563
:101BA0007465637465642C20706F7374706F6E69F4
:101BB0006E672E0D0A0052494E47206465746563B6
:101BC0007465642E0D0A00416E73776572696E67E5
:101BD0002070686F6E652063616C6C2E0D0A004189
:101BE00054410D00436865636B696E67206973201B
:101BF0006D6F76656D656E74206973206C656769BD
:101C0000742E0D0A004D6F76656D656E7420636FDE
:101C1000756E743A20004D6F76656D656E7420693F
:101C200073206C656769742C206368616E67696EE8
:101C300067207374617475732E0D0A0047534D202D
:101C40007461736B2E2E2E0D0A00436865636B69F9
:101C50006E67206966206D6F64656D206973207200
:101C600065676973746572656420746F206E65744E
:101C7000776F726B2E0D0A00526567697374657217
:101C800020746F206E6574776F726B206F6B2E0DF2
:101C90000A0053656E64696E6720534D532E0D0A1A
:101CA0000044656C6179696E672E0D0A0053656E9C
:101CB00064696E6720444542554720534D532E0DAD
:101CC0000A00446562756720534D532073656E7436
:101CD0002E0D0A00446562756720534D53206E6FC8
:101CE000742073656E742E0D0A00534D5320736576
:101CF0006E64206661696C65642E0D0A004D6F6428
:101D0000656D206973206E6F7420726567697374E6
:101D10006572656420746F206E6574776F726B2EC8
:101D20000D0A004657207665723A204D6F64656D46
:101D300020536C6565702076312E300D0A004D61A0
:101D4000696E205541525420496E697469616C690D
:101D50007A65642E0D0A004D6F64656D20636F6EA9
:101D600074726F6C2070696E7320496E697469615A
:101D70006C697A65642E0D0A0048696768206F6E89
:101D80002052696E672070696E2C207475726E69BE
:101D90006E67206F6E206D6F64656D2E0D0A004CAE
:101DA0006F77206F6E2052696E672070696E2C20ED
:101DB000436865636B696E672041542E0D0A0052BB
:101DC00065747279696E672041542E0D0A00415482
:101DD000204F4B2061667465722072657472792E93
:101DE0000D0A00456E64206F6620415420726574B0
:101DF000726965732C206D6F64656D206E6F742041
:101E0000726573706F6E64696E672E0D0A004154BF
:101E1000204F4B2E0D0A005365747570204F4B2CCC
:101E2000206D6F64656D20776F726B696E672E0D24
:101E30000A004D6F64656D206E6F7420726573705B
:101E40006F6E64696E672E0D0A0052494E47206915
:101E500073204C4F572C20627574206D6F64656D34
:101E6000206E6F7420726573706F6E64696E672E7A
:101E70000D0A005374616E6461727420696E697436
:101E800020737461727465642E0D0A00536C65656D
:101E900070206D6F6465207365742E0D0A005662A4
:101EA00061743A20006D560D0A004D6F6E69746FB3
:101EB00072696E67206D6F76656D656E742E0D0AA2
:101EC0000052696E6720646574656374696F6E2083
:101ED0006F6E2E0D0A004D6F76656D656E7420660F
:101EE000696E69736865642E0D0A004E6F206D6F10
:101EF00076656D656E7420646574656374656420D1
:101F0000696E20776169742066756E6374696F6E9F
:101F10002E0D0A004D6F76656D656E7420776173C6
:101F2000206E6F74206C656769742E0D0A00494E2F
:101F30005430206F6E2C20476F696E6720746F20BD
:101F4000736C6565702E0D0A00576F6B6520757098
:101F50002E0D0A002B3337303631323137373838CF
:101F6000002B33373036313231373738380045526D
:101F7000524F52004F4B002B435245473A20302CD2
:101F800031002B435245473A20302C3500436865D9
:101F9000636B696E6720636F6E6669673A200D0A2E
:101FA000005B41544530206F6B2E5D0D0A005B5481
:101FB000657874206D6F646520736574206F6B2E77
:101FC0005D0D0A005B534D532053746F726167655A
:101FD00020736574204F4B2E5D0D0A005B43616CCE
:101FE0006C657220494420736574204F4B2E5D0D43
:101FF0000A005B526567697374726174696F6E2061
:1020000073746174757320736574204F4B2E5D0D6E
:102010000A005B4D6963726F70686F6E65206C6556
:1020200076656C20736574204F4B2E5D0D0A005B46
:10203000536C656570206D6F646520736574206FE7
:102040006B2E5D0D0A005B4D6573736167657320D0
:1020500064656C657465642E5D0D0A0041542B4304
:102060004D47533D222573220D003E0054656D708F
:102070002E3A2000430D0A004A75646573696F208B
:102080006E6562657261206A617520356D696E2EBC
:102090002E2052797379732061746A756E67696155
:1020A0006D61732E0D0A00566261742E3A20006D28
:1020B00056002D53454E4B412E0D0A002D4F4B2EF1
:1020C0000D0A0053697374656D612073756A7564D8
:1020D000696E74612C20727973797320696A756EE8
:1020E000677461732E0D0A004A75646573797320F5
:1020F000626169676573692E205279737973206113
:10210000746A756E6769616D61732E0D0A005065A2
:10211000722070616772696E64696E69206C6169B2
:102120006B6F74617270692073697374656D61207F
:102130006E6573756A7564656A6F2C2072656B6F66
:102140006D656E64756F6A616D612070616B656944
:10215000737469207069726D696E696F2066696C4D
:1021600074726F206E7573746174796D75732E0D52
:102170000A0041544425733B0D004D6F64656D208A
:10218000536C65657020656E61626C65642E0D0A26
:10219000004D6F64656D20536C65657020646973D4
:0A21A00061626C65642E0D0A0000F8
:00000001FF
