:100000000C947B000C949A000C94B1000C94980012
:100010000C9498000C9498000C9498000C94980000
:100020000C9498000C9498000C9498000C949800F0
:100030000C9498000C9498000C9498000C949800E0
:100040000C94C8000C9498000C94EF060C941D07B7
:100050000C9498000C9498000C9498000C949800C0
:100060000C9498000C94980041542B434D47444104
:100070003D2244454C20414C4C220D0041542B4321
:1000800053434C4B3D310D0041542B434D49433DAF
:10009000302C31350D0041542B435245473D300D36
:1000A0000041542B434C49503D310D0041542B43EA
:1000B000504D533D22534D222C22534D222C22537E
:1000C0004D220D0041542B434D47463D310D00411B
:1000D0005445300D0041540D0041540D0041542B46
:1000E000435245473F0D0041542B435245473F0D76
:1000F0000041540D000011241FBECFEFD8E0DEBF39
:10010000CDBF16E0A0E0B1E0EEE4FBE102C0059057
:100110000D92A43FB107D9F727E0A4EFB6E001C0E4
:100120001D92A134B207E1F70E9410020C94A50DB4
:100130000C9400001F920F920FB60F9211248F9310
:100140009F938FE39CE90197F1F700C0000081E0E5
:100150008093F7069F918F910F900FBE0F901F9085
:1001600018951F920F920FB60F9211248F939F93A1
:100170008FE39CE90197F1F700C0000081E08093D4
:10018000F4069F918F910F900FBE0F901F901895BE
:100190001F920F920FB60F9211242F938F939F935C
:1001A0008091F5069091F6068C3B9F4720F01092C7
:1001B000F6061092F5068091F5069091F6060196E6
:1001C0009093F6068093F5069F918F912F910F9053
:1001D0000FBE0F901F9018950F931F93CF93DF932F
:1001E000EC011092F6061092F50616BC86E091E03E
:1001F0000E945F038091F5069091F6068C179D078B
:1002000008F04BC010E001E09091F706913069F4DE
:100210000E9494031092F7061092F6061092F506CB
:1002200088E291E00E945F03102F9091F4069130D4
:1002300039F50E94A7038FE19EE40197F1F700C012
:1002400000004B9B1DC01092F4069FEF24E38CE04E
:10025000915020408040E1F700C000004B9B10C04F
:1002600086E491E00E945F030E94E00687E591E04A
:100270000E945F038FE691E00E948E070E94D106E4
:100280000E94A5030E9496032091F5063091F60680
:100290002C173D0708F4B8CF01C010E0812FDF9183
:1002A000CF911F910F910895CF92DF92EF92FF921D
:1002B0001F93CF93DF93CDB7DEB760970FB6F89457
:1002C000DEBF0FBECDBF6C017B011092F60610920F
:1002D000F50616BC84E791E00E945F0310E032C08F
:1002E0009091F706913019F50E9494031092F70649
:1002F0001092F6061092F5061F5F88E291E00E94C8
:100300005F0385E991E00E945F034AE0BE016F5FF1
:100310007F4F812F90E00E948B0ACE0101960E94B0
:100320005F0388EE94E00E945F030E949603212FF2
:1003300030E0C216D30630F486EA91E00E945F03F3
:1003400081E008C02091F5063091F6062E153F0594
:1003500038F280E060960FB6F894DEBF0FBECDBFD6
:10036000DF91CF911F91FF90EF90DF90CF90089594
:10037000CF93C82F8CEC91E00E945F030E94E006AF
:100380008AED91E00E945F030E94AE048823E9F1A8
:1003900088E092E00E945F0382E292E00E945F03A5
:1003A0006C2F8BEA94E00E940906882349F188E5C6
:1003B00092E00E945F0381E392E00E945F032FEFCF
:1003C00083E294EF215080409040E1F700C00000AC
:1003D0008DE392E00E945F036C2F8EE994E00E940F
:1003E0000906882329F082E592E00E945F0304C099
:1003F00084E692E00E945F030E94D10681E00EC075
:100400008AE792E00E945F0304C08DE892E00E94B8
:100410005F030E9496030E94D10680E0CF91089569
:100420002FEF80E792E0215080409040E1F700C03C
:1004300000002A9A229A80E096E90E94A903789403
:100440002FEF80E792E0215080409040E1F700C01C
:10045000000083EB92E00E945F030E94AF060E94BF
:10046000E0068CEC92E00E945F034B9B06C08EEE90
:1004700092E00E945F030E94BB062FEF80E792E0AC
:10048000215080409040E1F700C000004B993BC0F4
:1004900084E193E00E945F030E94950481111BC0D8
:1004A000CBE0D0E084E393E00E945F032FEF84E38E
:1004B0009CE0215080409040E1F700C000000E9485
:1004C0009504882329F083E493E00E945F0307C02A
:1004D000219741F704C088E593E00E945F0380E024
:1004E0000E94DB04882329F081E693E00E945F03E9
:1004F0000AC08CE793E00E945F034B9904C084E933
:1005000093E00E945F030E94D1068FE19EE4019771
:10051000F1F700C000008DEB93E00E945F030E94A2
:10052000980383B7817F846083BF86ED93E00E9448
:100530005F038FE19EE40197F1F700C0000088EEB1
:1005400093E00E945F030E9413030E946E038FEEEC
:1005500093E00E945F0384EF93E00E945F030E9498
:10056000960366E970E085E090E00E9454018823DC
:1005700081F10E9494039FEF20E782E09150204098
:100580008040E1F700C0000080E00E94B8010E94B6
:10059000A5038BE094E00E945F030E94960382E82B
:1005A00093E20E94EC00882361F00E94A7030E945E
:1005B000940380E294E00E945F0381E00E94B8010E
:1005C0000CC085E394E00E945F0382E00E94B801C2
:1005D00004C08EE594E00E945F030E94A7030E947E
:1005E000960388E794E00E945F039FEF20E782E094
:1005F000915020408040E1F700C0000083B7816047
:1006000083BF889583B78E7F83BF9FEF20E782E00B
:10061000915020408040E1F700C0000083E994E061
:100620000E945F0386CFECE7F0E010828081806457
:100630008083808183608083EAE7F0E0108280819C
:1006400087608083808180688083808180648083EC
:10065000808186FDFDCFEAE7F0E080818F7780839F
:100660006091780070917900660F771F80E090E0CC
:100670000E94FB0722E538EB4EE250E40E94890815
:100680000E94CC07CB0108952FB7F8949AE0E5B10A
:10069000EB7FE5B900000000000000000000E1E38E
:1006A000F0E03197F1F7E5B180FDE46080FFEB7F8A
:1006B000E5B9089487959A9591F72FBF0895CF9340
:1006C000DF93EC018881882331F021960E94440356
:1006D00089918111FBCFDF91CF910895CF93DF9363
:1006E000CDB7DEB760970FB6F894DEBF0FBECDBFB3
:1006F0004AE0BE016F5F7F4F0E948B0ACE010196D8
:100700000E945F0360960FB6F894DEBF0FBECDBFA8
:10071000DF91CF91089585B5856085BDEEE6F0E067
:100720008081816080830895E8980895E89A08950B
:100730005A9A5B9AE9E6F0E0808188608083808144
:10074000846080830E948B030895E99A0895E99854
:1007500008950F931F938C0120E030E0D901C80168
:10076000805C9D4BA04FBF4F880F991FAA1FBB1FD6
:10077000880F991FAA1FBB1FBC01CD01660F771FF1
:10078000881F991F000F111F221F331F000F111FF9
:10079000221F331FA9019801220F331F441F551F29
:1007A000220F331F441F551F0E94F608C9010197ED
:1007B0000E9447071F910F9108950E9460078115BD
:1007C0009140D9F708952F923F924F925F926F9286
:1007D0007F928F929F92AF92BF92CF92DF92EF92D1
:1007E000FF920F931F93CF93DF9300D000D01F92FF
:1007F000CDB7DEB7F82E5B015D834C83280139014C
:10080000E982DB82CA8261E070E080E490E00E94CD
:1008100018098C01892B09F46FC080E4F80111924A
:100820008A95E9F7A114B10409F441C00E94DD03DF
:10083000FF2021F0C5010E949D0739C0C5010E941B
:100840008E0735C0FFEFCF1ADF0AEF0AFF0A22E05A
:100850002A95F1F700C00E9460078115E1E09E072C
:1008600039F4C414D504E604F70461F7F12C2FC061
:10087000C414D504E604F70420F5F50181935F0163
:1008800093948C819D81009731F0BC01C8010E9436
:10089000710A892BC1F468EB74E0C8010E94710AE7
:1008A000892BA1F49FE3991207C0F12C10C05801C5
:1008B000912C212C312C812CC22CD32CE82CF12C06
:1008C000CACFF12C04C0FF24F39401C0F12CE981BC
:1008D000EE2369F08A819B81009749F09E1638F4D7
:1008E000FF2029F0492D50E0B8010E94610AC8019B
:1008F0000E94C9098F2D01C080E00F900F900F90CA
:100900000F900F90DF91CF911F910F91FF90EF907B
:10091000DF90CF90BF90AF909F908F907F906F901F
:100920005F904F903F902F900895CF92DF92EF927B
:100930000F931F93C12CD12CE12C00E211EA27E088
:1009400030E04EEB54E061EF70E081E00E94E303A1
:100950001F910F91EF90DF90CF900895CF92DF928B
:10096000EF920F931F93C12CD12CE12C00E41BE4D8
:100970002CE430E041EC54E067EE70E081E00E944E
:10098000E303811111C000E41BE42CE430E04CECE3
:1009900054E06DED70E081E00E94E30391E081118D
:1009A00001C090E0892F01C081E01F910F91EF906D
:1009B000DF90CF900895CF92DF92EF920F931F9325
:1009C000CF938823F1F0C12CD12CE12C00E211EA65
:1009D00027E030E04EEB54E069ED70E081E00E94EA
:1009E000E303882381F32FEF80E792E021508040DA
:1009F0009040E1F700C0000087ED94E00E945F03A3
:100A00001FC0C12CD12CE12C00E211EA27E030E01C
:100A10004EEB54E065ED70E081E00E94E303C82FE7
:100A20002FEF80E792E0215080409040E1F700C036
:100A3000000087ED94E00E945F03CC2309F4E1C03D
:100A4000C12CD12CE12C00E211EA27E030E04EEB82
:100A500054E06FEC70E081E00E94E303C82F88232C
:100A600009F4CFC02FEF80E792E021508040904002
:100A7000E1F700C000008BEE94E00E945F0300E409
:100A800012E42FE030E04EEB54E064EC70E081E0E3
:100A90000E94E303C82F882309F4B3C02FEF80E737
:100AA00092E0215080409040E1F700C0000088EFC4
:100AB00094E00E945F0300E412E42FE030E04EEB8C
:100AC00054E06CEA70E081E00E94E303C82F8823C1
:100AD00009F497C08EE095E00E945F032FEF80E756
:100AE00092E0215080409040E1F700C0000000E417
:100AF00012E42FE030E04EEB54E061EA70E081E078
:100B00000E94E303C82F882309F47BC086E295E0A6
:100B10000E945F032FEF80E792E0215080409040D9
:100B2000E1F700C0000000E412E42FE030E04EEBFB
:100B300054E066E970E081E00E94E303C82F882357
:100B400009F45FC08CE395E00E945F032FEF80E71C
:100B500092E0215080409040E1F700C0000000E4A6
:100B600012E42FE030E04EEB54E068E870E081E002
:100B70000E94E303C82F882309F443C08CE595E065
:100B80000E945F032FEF80E792E021508040904069
:100B9000E1F700C0000000E412E42FE030E04EEB8B
:100BA00054E06CE770E081E00E94E303C82F8823E3
:100BB00041F189E795E00E945F032FEF80E792E023
:100BC000215080409040E1F700C0000000E41BE4A9
:100BD0002CE430E04EEB54E068E670E081E00E94E7
:100BE000E303C82F882369F080E995E00E945F0342
:100BF0002FEF80E792E0215080409040E1F700C065
:100C000000008C2FCF911F910F91EF90DF90CF902C
:100C10000895CF92DF92EF92FF920F931F93CF939D
:100C2000DF93182F092FF62E61E070E080E290E04C
:100C30000E941809EC01009709F487C020E2FC012A
:100C4000822F11928A95E9F70F931F9386EA95E018
:100C50009F938F931F922F93DF93CF930E94B00A9D
:100C6000C12CD12CE12C00E814E82EE130E044EB5B
:100C700055E0BE0180E00E94E303182F8DB79EB7B8
:100C800008960FB6F8949EBF0FBE8DBF112309F4CE
:100C900057C0F11028C0EFE1FEE43197F1F700C032
:100CA000000081EF95E00E948E070E9413030E94CE
:100CB000AF0789EF95E00E948E070E9413038834E6
:100CC0009D4028F48CEF95E00E948E0704C086E0DA
:100CD00096E00E948E078DE096E00E948E078AE1E2
:100CE0000E9479072DC021E0F21214C081EF95E037
:100CF0000E948E070E9413030E94AF078FEE93E0BD
:100D00000E948E0782E396E00E948E078AE10E948D
:100D1000790716C082E0F81213C081EF95E00E94B7
:100D20008E070E9413030E94AF078FEE93E00E948C
:100D30008E0788E596E00E948E078AE10E94790777
:100D4000CE010E94C909812F01C080E0DF91CF91BF
:100D50001F910F91FF90EF90DF90CF9008955D98D5
:100D60005D985D98559A569A579A5B9A8AE18A954A
:100D7000F1F700C008955D9A2FEF8AED9AE12150B6
:100D800080409040E1F700C000005D982FEF81E1C6
:100D90009AE7215080409040E1F700C0000081E0D8
:100DA00008955E9A2FEF80E792E0215080409040B6
:100DB000E1F700C0000084EC96E00E945F03089514
:100DC0005E982FEF81EE94E0215080409040E1F753
:100DD00000C000008BED96E00E945F0308951F9213
:100DE0000F920FB60F9211242F938F939F93EF932F
:100DF000FF938091C0002091C6008871E091FA06AF
:100E0000EF5FEF719091F906E91739F0E093FA0678
:100E1000F0E0E350F94F208301C082E09091F806A2
:100E2000892B8093F806FF91EF919F918F912F91DD
:100E30000F900FBE0F901F9018951F920F920FB634
:100E40000F9211248F939F93EF93FF939091FC0641
:100E50008091FB06981769F0E091FB06EF5FEF7158
:100E6000E093FB06F0E0E35EF84F80818093C600DC
:100E700005C0E1ECF0E080818F7D8083FF91EF91F0
:100E80009F918F910F900FBE0F901F901895109209
:100E9000FC061092FB061092FA061092F9069923AE
:100EA00024F422E02093C0009F779093C5008093A4
:100EB000C40088E98093C10086E08093C200089551
:100EC0009091FA068091F906981781F0E091F90661
:100ED000EF5FEF71E093F906F0E0E350F94F8081A6
:100EE0009091F8061092F80690E0089580E091E065
:100EF00008952091FC062F5F2F719091FB06291712
:100F0000E1F3E22FF0E0E35EF84F80832093FC06EC
:100F1000E1ECF0E08081806280830895CF93DF93DD
:100F2000EC018881882331F021960E94790789910C
:100F30008111FBCFDF91CF910895CF93DF93EC0127
:100F40002196FC018491882339F00E947907FE01E3
:100F5000849121968111F9CFDF91CF910895CF939C
:100F6000DF93CDB7DEB760970FB6F894DEBF0FBE44
:100F7000CDBF4AE0BE016F5F7F4F0E948B0ACE015A
:100F800001960E948E0760960FB6F894DEBF0FBEE2
:100F9000CDBFDF91CF9108950E94680888F09F57D8
:100FA00098F0B92F9927B751B0F0E1F0660F771F8D
:100FB000881F991F1AF0BA95C9F714C0B13091F083
:100FC0000E948208B1E008950C948208672F782F60
:100FD0008827B85F39F0B93FCCF386957795679548
:100FE000B395D9F73EF490958095709561957F4FB4
:100FF0008F4F9F4F0895E89409C097FB3EF490955A
:101000008095709561957F4F8F4F9F4F9923A9F0E1
:10101000F92F96E9BB279395F69587957795679570
:10102000B795F111F8CFFAF4BB0F11F460FF1BC0B4
:101030006F5F7F4F8F4F9F4F16C0882311F096E947
:1010400011C0772321F09EE8872F762F05C06623F5
:1010500071F096E8862F70E060E02AF09A95660FAE
:10106000771F881FDAF7880F9695879597F9089567
:1010700097F99F6780E870E060E008959FEF80EC4B
:10108000089500240A9416161706180609060895EE
:1010900000240A9412161306140605060895092E54
:1010A0000394000C11F4882352F0BB0F40F4BF2BC3
:1010B00011F460FF04C06F5F7F4F8F4F9F4F089503
:1010C00057FD9058440F551F59F05F3F71F04795F9
:1010D000880F97FB991F61F09F3F79F087950895DE
:1010E000121613061406551FF2CF4695F1DF08C0FD
:1010F000161617061806991FF1CF8695710561051A
:1011000008940895E894BB2766277727CB0197F9C1
:1011100008950E949C080C944F080E94410838F0E2
:101120000E94480820F0952311F00C9438080C9484
:101130003E0811240C9483080E94600870F3959F68
:10114000C1F3950F50E0551F629FF001729FBB27BE
:10115000F00DB11D639FAA27F00DB11DAA1F649F5A
:101160006627B00DA11D661F829F2227B00DA11D0D
:10117000621F739FB00DA11D621F839FA00D611D93
:10118000221F749F3327A00D611D231F849F600DB4
:10119000211D822F762F6A2F11249F5750409AF0DD
:1011A000F1F088234AF0EE0FFF1FBB1F661F771F69
:1011B000881F91505040A9F79E3F510580F00C9434
:1011C00038080C9483085F3FE4F3983ED4F3869587
:1011D00077956795B795F795E7959F5FC1F7FE2BD4
:1011E000880F911D9695879597F90895A1E21A2E7B
:1011F000AA1BBB1BFD010DC0AA1FBB1FEE1FFF1FBB
:10120000A217B307E407F50720F0A21BB30BE40B0A
:10121000F50B661F771F881F991F1A9469F7609551
:101220007095809590959B01AC01BD01CF0108950B
:101230000F931F93CF93DF93869F8001879F100D9D
:10124000969F100D1124C8010E943409EC010097EB
:1012500029F0A80160E070E00E946A0ACE01DF91E7
:10126000CF911F910F910895CF93DF938230910515
:1012700010F482E090E0E0913F07F091400720E019
:1012800030E0C0E0D0E0309711F140815181481743
:101290005907C0F04817590761F48281938120975C
:1012A00019F09B838A832BC09093400780933F075C
:1012B00026C02115310519F04217530718F49A0179
:1012C000BE01DF01EF010280F381E02DDCCF2115AB
:1012D000310509F1281B390B2430310590F41296A1
:1012E0008D919C9113976115710521F0FB019383FA
:1012F000828304C09093400780933F07FD0132969C
:1013000044C0FD01E20FF31F8193919322503109F4
:101310002D933C933AC020913D0730913E07232BFB
:1013200041F4209102013091030130933E07209354
:101330003D0720910001309101012115310541F453
:101340002DB73EB74091040150910501241B350B88
:10135000E0913D07F0913E07E217F307A0F42E1B42
:101360003F0B2817390778F0AC014E5F5F4F241709
:10137000350748F04E0F5F1F50933E0740933D07DF
:101380008193919302C0E0E0F0E0CF01DF91CF9133
:1013900008950F931F93CF93DF93009709F48CC0A8
:1013A000FC0132971382128200913F07109140078F
:1013B0000115110581F420813181820F931F209145
:1013C0003D0730913E072817390779F5F0933E071E
:1013D000E0933D0771C0D80140E050E0AE17BF0771
:1013E00050F412962D913C911397AD0121153105C2
:1013F00009F1D901F3CF9D01DA01338322836081A2
:101400007181860F971F8217930769F4EC01288179
:101410003981260F371F2E5F3F4F318320838A810A
:101420009B8193838283452B29F4F0934007E093BB
:101430003F0742C01396FC93EE931297ED0149913A
:1014400059919E01240F351FE217F30771F4808133
:101450009181840F951F029611969C938E938281A1
:10146000938113969C938E931297E0E0F0E0D8015D
:1014700012968D919C911397009719F0F8018C01A9
:10148000F6CF8D919C9198012E5F3F4F820F931F55
:1014900020913D0730913E072817390769F43097AE
:1014A00029F41092400710923F0702C01382128263
:1014B00010933E0700933D07DF91CF911F910F914D
:1014C0000895FB01DC0102C001900D924150504093
:1014D000D8F70895DC0101C06D9341505040E0F70A
:1014E0000895FB0151915523A9F0BF01DC014D91F5
:1014F00045174111E1F759F4CD010190002049F061
:101500004D9140154111C9F3FB014111EFCF81E02D
:1015100090E001970895BB274A3031F4992322F4D3
:10152000BDE2909581959F4F0C94970ABB27FB01D4
:101530005527AA27880F991FAA1FA41710F0A41BCC
:1015400083955051B9F7A05DAA3308F0A95DA19326
:10155000009779F7B111B1931192CB010C94C80C9B
:10156000AEE0B0E0E6EBFAE00C947C0D0D891E894C
:101570008F89988D26E02C831A83098397FF02C0F8
:1015800080E090E801979E838D83AE01455E5F4FBA
:10159000698D7A8DCE0101960E94E00A4D815E81AF
:1015A00057FD0AC02F813885421753070CF49A0162
:1015B000F801E20FF31F10822E96E4E00C94980DD0
:1015C000ACE0B0E0E6EEFAE00C946E0D7C016B014D
:1015D0008A01FC0117821682838181FFBDC1CE0181
:1015E00001964C01F7019381F60193FD859193FFDC
:1015F00081916F01882309F4ABC1853239F493FDE1
:10160000859193FF81916F01853229F4B70190E0B4
:101610000E94D80CE7CF512C312C20E02032A0F4CE
:101620008B3269F030F4803259F0833269F42061F2
:101630002CC08D3239F0803339F4216026C022600D
:10164000246023C0286021C027FD27C030ED380F5B
:101650003A3078F426FF06C0FAE05F9E300D112480
:10166000532E13C08AE0389E300D1124332E206291
:101670000CC08E3221F426FD6BC1206406C08C366E
:1016800011F4206802C0883641F4F60193FD85917B
:1016900093FF81916F018111C1CF982F9F7D955448
:1016A000933028F40C5F1F4FFFE3F9830DC083369E
:1016B00031F0833771F0833509F05BC022C0F80147
:1016C000808189830E5F1F4F44244394512C540121
:1016D00015C03801F2E06F0E711CF801A080B180D6
:1016E00026FF03C0652D70E002C06FEF7FEFC501DC
:1016F0002C870E94BD0C2C0183012C852F77222E74
:1017000017C03801F2E06F0E711CF801A080B180A3
:1017100026FF03C0652D70E002C06FEF7FEFC501AB
:101720002C870E94B20C2C012C852068222E83016C
:1017300023FC1BC0832D90E048165906B0F4B70176
:1017400080E290E00E94D80C3A94F4CFF50127FC97
:10175000859127FE81915F01B70190E00E94D80C2E
:1017600031103A94F1E04F1A51084114510471F7C5
:10177000E5C0843611F0893639F5F80127FF07C036
:1017800060817181828193810C5F1F4F08C06081ED
:101790007181072E000C880B990B0E5F1F4F2F765F
:1017A000722E97FF09C090958095709561957F4F37
:1017B0008F4F9F4F2068722E2AE030E0A4010E94D4
:1017C000100DA82EA81844C0853729F42F7EB22EFC
:1017D0002AE030E025C0F22FF97FBF2E8F36C1F00E
:1017E00018F4883579F0B4C0803719F0883721F0C3
:1017F000AFC02F2F2061B22EB4FE0DC08B2D8460A0
:10180000B82E09C024FF0AC09F2F9660B92E06C0CB
:1018100028E030E005C020E130E002C020E132E005
:10182000F801B7FE07C060817181828193810C5FEE
:101830001F4F06C06081718180E090E00E5F1F4FF6
:10184000A4010E94100DA82EA818FB2DFF777F2E53
:1018500076FE0BC0372D3E7FA51450F474FE0AC0EF
:1018600072FC08C0372D3E7E05C0BA2C372D03C050
:10187000BA2C01C0B52C34FF0DC0FE01EA0DF11DDC
:101880008081803311F4397E09C032FF06C0B394E1
:10189000B39404C0832F867809F0B39433FD13C04A
:1018A00030FF06C05A2CB31418F4530C5B18B32C39
:1018B000B31468F4B70180E290E03C870E94D80C32
:1018C000B3943C85F5CFB31410F43B1801C0312C10
:1018D00034FF12C0B70180E390E03C870E94D80C2F
:1018E0003C8532FF17C031FD03C088E790E002C09D
:1018F00088E590E0B7010CC0832F867859F031FF5E
:1019000002C08BE201C080E237FD8DE2B70190E0BA
:101910000E94D80CA51438F4B70180E390E00E942F
:10192000D80C5A94F7CFAA94F401EA0DF11D8081E6
:10193000B70190E00E94D80CA110F5CF332009F434
:1019400051CEB70180E290E00E94D80C3A94F6CFD5
:10195000F7018681978102C08FEF9FEF2C96E2E11D
:101960000C948A0DFC010590615070400110D8F76D
:10197000809590958E0F9F1F0895FC0161507040D7
:1019800001900110D8F7809590958E0F9F1F0895B4
:10199000DC01FC01672F71917723E1F7329704C0D6
:1019A0007C916D9370836291AE17BF07C8F3089561
:1019B0000F931F93CF93DF93FB01238121FD03C07E
:1019C0008FEF9FEF28C022FF16C0468157812481E8
:1019D00035814217530744F4A081B1819D012F5FE7
:1019E0003F4F318320838C93268137812F5F3F4F78
:1019F0003783268310C0EB01092F182F0084F1854F
:101A0000E02D0995892BE1F68E819F8101969F83B8
:101A10008E83812F902FDF91CF911F910F91089589
:101A2000FA01AA27283051F1203181F1E8946F930F
:101A30006E7F6E5F7F4F8F4F9F4FAF4FB1E03ED0B5
:101A4000B4E03CD0670F781F891F9A1FA11D680F53
:101A5000791F8A1F911DA11D6A0F711D811D911D86
:101A6000A11D20D009F468943F912AE0269F1124FB
:101A70003019305D3193DEF6CF010895462F47705F
:101A8000405D4193B3E00FD0C9F7F6CF462F4F70BA
:101A9000405D4A3318F0495D31FD4052419302D018
:101AA000A9F7EACFB4E0A6959795879577956795BE
:101AB000BA95C9F700976105710508959B01AC01BE
:101AC0000A2E06945795479537952795BA95C9F7E5
:101AD000620F731F841F951FA01D08952F923F92C0
:101AE0004F925F926F927F928F929F92AF92BF922E
:101AF000CF92DF92EF92FF920F931F93CF93DF93DA
:101B0000CDB7DEB7CA1BDB0B0FB6F894DEBF0FBE36
:101B1000CDBF09942A88398848885F846E847D8483
:101B20008C849B84AA84B984C884DF80EE80FD8085
:101B30000C811B81AA81B981CE0FD11D0FB6F894FB
:0E1B4000DEBF0FBECDBFED010895F894FFCFBC
:101B4E0000004107200057616974696E6720666F57
:101B5E0072206D6F76656D656E7420746F20666988
:101B6E006E6973682E0D0A004576656E7420646585
:101B7E007465637465642C20706F7374706F6E6916
:101B8E006E672E0D0A0052494E47206465746563D8
:101B9E007465642E0D0A00416E73776572696E6707
:101BAE002070686F6E652063616C6C2E0D0A0041AB
:101BBE0054410D00436865636B696E67206973203D
:101BCE006D6F76656D656E74206973206C656769DF
:101BDE00742E0D0A004D6F76656D656E7420636F01
:101BEE00756E743A20004D6F76656D656E74206962
:101BFE0073206C656769742C206368616E67696E0B
:101C0E0067207374617475732E0D0A0047534D204F
:101C1E007461736B2E2E2E0D0A00436865636B691B
:101C2E006E67206966206D6F64656D206973207222
:101C3E0065676973746572656420746F206E657470
:101C4E00776F726B2E0D0A00526567697374657239
:101C5E0020746F206E6574776F726B206F6B2E0D14
:101C6E000A0053656E64696E6720534D532E0D0A3C
:101C7E000044656C6179696E672E0D0A0053656EBE
:101C8E0064696E6720444542554720534D532E0DCF
:101C9E000A00446562756720534D532073656E7458
:101CAE002E0D0A00446562756720534D53206E6FEA
:101CBE00742073656E742E0D0A00534D5320736598
:101CCE006E64206661696C65642E0D0A004D6F644A
:101CDE00656D206973206E6F742072656769737409
:101CEE006572656420746F206E6574776F726B2EEB
:101CFE000D0A004D61696E205541525420496E699E
:101D0E007469616C697A65642E0D0A004D6F6465A5
:101D1E006D20636F6E74726F6C2070696E732049E4
:101D2E006E697469616C697A65642E0D0A00486982
:101D3E006768206F6E2052696E672070696E2C2066
:101D4E007475726E696E67206F6E206D6F64656D4F
:101D5E002E0D0A004C6F77206F6E2052696E672031
:101D6E0070696E2C20436865636B696E6720415401
:101D7E002E0D0A005265747279696E672041542ED9
:101D8E000D0A004154204F4B20616674657220721B
:101D9E00657472792E0D0A004154204F4B2E0D0A98
:101DAE00005365747570204F4B2C206D6F64656DFC
:101DBE0020776F726B696E672E0D0A004D6F64652A
:101DCE006D206E6F7420726573706F6E64696E67CE
:101DDE002E0D0A0052494E47206973204C4F572C46
:101DEE0020627574206D6F64656D206E6F74207245
:101DFE006573706F6E64696E672E0D0A00537461A1
:101E0E006E6461727420696E697420737461727489
:101E1E0065642E0D0A00536C656570206D6F6465E8
:101E2E00207365742E0D0A00566261743A20006D9F
:101E3E00560D0A004D6F6E69746F72696E67206D74
:101E4E006F76656D656E742E0D0A0052696E672091
:101E5E00646574656374696F6E206F6E2E0D0A0073
:101E6E004D6F76656D656E742066696E6973686513
:101E7E00642E0D0A004E6F206D6F76656D656E7463
:101E8E0020646574656374656420696E207761698A
:101E9E00742066756E6374696F6E2E0D0A004D6F39
:101EAE0076656D656E7420776173206E6F74206C2D
:101EBE00656769742E0D0A00494E5430206F6E2CE2
:101ECE0020476F696E6720746F20736C6565702E86
:101EDE000D0A00576F6B652075702E0D0A002B339F
:101EEE0037303631323137373838002B33373036DA
:101EFE0031323137373838004552524F52004F4B3E
:101F0E00002B435245473A20302C31002B4352458B
:101F1E00473A20302C3500436865636B696E672045
:101F2E00636F6E6669673A200D0A005B4154453057
:101F3E00206F6B2E5D0D0A005B54657874206D6FFB
:101F4E00646520736574206F6B2E5D0D0A005B5304
:101F5E004D532053746F7261676520736574204F03
:101F6E004B2E5D0D0A005B43616C6C65722049441B
:101F7E0020736574204F4B2E5D0D0A005B52656712
:101F8E00697374726174696F6E20737461747573A2
:101F9E0020736574204F4B2E5D0D0A005B4D6963F7
:101FAE00726F70686F6E65206C6576656C207365F8
:101FBE0074204F4B2E5D0D0A005B536C65657020CF
:101FCE006D6F646520736574206F6B2E5D0D0A0056
:101FDE005B4D657373616765732064656C657465CD
:101FEE00642E5D0D0A0041542B434D47533D22256F
:101FFE0073220D003E0054656D702E3A2000430D85
:10200E000A004A75646573696F206E656265726158
:10201E00206A617520356D696E2E2E205279737986
:10202E00732061746A756E6769616D61732E0D0A36
:10203E0000566261742E3A20006D56002D53454EA7
:10204E004B412E0D0A002D4F4B2E0D0A0053697376
:10205E0074656D612073756A7564696E74612C2088
:10206E00727973797320696A756E677461732E0D58
:10207E000A004A75646573797320626169676573D6
:10208E00692E2052797379732061746A756E67694F
:10209E00616D61732E0D0A0050657220706167725A
:1020AE00696E64696E69206C61696B6F74617270C0
:1020BE00692073697374656D61206E6573756A75D9
:1020CE0064656A6F2C2072656B6F6D656E64756FDB
:1020DE006A616D612070616B6569737469207069E6
:1020EE00726D696E696F2066696C74726F206E75A1
:1020FE0073746174796D75732E0D0A004154442505
:10210E00733B0D004D6F64656D20536C65657020DB
:10211E00656E61626C65642E0D0A004D6F64656DAF
:10212E0020536C6565702064697361626C65642E02
:04213E000D0A000086
:00000001FF
